:020000040800F2
:10000000580700205D020008591A00083D19000831
:10001000551A00085D070008151C000800000000C4
:10002000000000000000000000000000611A00084D
:1000300061070008000000005D1A0008651A00084A
:1000400077020008770200087702000877020008AC
:10005000770200087702000877020008770200089C
:10006000770200087702000877020008770200088C
:10007000770200087702000877020008770200087C
:10008000770200087702000877020008770200086C
:10009000770200087702000877020008770200085C
:1000A000770200087702000877020008770200084C
:1000B000770200087702000877020008770200083C
:1000C000770200087702000877020008770200082C
:1000D000770200087702000877020008770200081C
:1000E000770200087702000877020008770200080C
:1000F00077020008770200087702000877020008FC
:1001000077020008770200087702000877020008EB
:1001100077020008770200087702000877020008DB
:1001200077020008770200087702000877020008CB
:1001300077020008770200087702000877020008BB
:1001400077020008770200087702000877020008AB
:10015000770200087702000877020008770200089B
:10016000770200087702000877020008770200088B
:1001700077020008770200087702000800000000FC
:10018000770200087702000800F002F800F057F844
:1001900014A696E8000CB244B344DA4501D100F04D
:1001A0004EF8BAE80F000FA696E83000A5EB04055C
:1001B00004EB0607AAEB0704A7F101074FEA1515A0
:1001C0004FEA3414A4F10104AC4201D300F037F833
:1001D00013F0010F18BFFB1A43F0010300F001F800
:1001E000DBE71847701B0000901B0000103A24BF8B
:1001F00078C878C1FAD8520724BF30C830C144BF8C
:1002000004680C6070470000704700000023002461
:1002100000250026103A28BF78C1FBD8520728BF16
:1002200030C148BF0B607047642900F0EB800020AC
:1002300070471FB501F06BFD1FBD10B510BD00F07C
:1002400052FA1146FFF7F5FF01F0E6FC00F070FAF4
:1002500003B4FFF7F2FF03BC00F078FA09488047C7
:1002600009480047FEE7FEE7FEE7FEE7FEE7FEE798
:10027000FEE7FEE7FEE7FEE704480549054A064BB0
:1002800070470000111B0008890100085801002078
:1002900058070020580300205803002053EA020C9E
:1002A00000F069802DE9F04B4FF00006002B1FBFD6
:1002B000B3FA83F503FA05F424FA05F65E4012BF9B
:1002C0001643B2FA82F502FA05F4C5F120051EBF05
:1002D00022FA05FC44EA0C04203556EA044C4FEAA5
:1002E000144418BF641C4FF000084FF000099042FE
:1002F00071EB030C39D3002919BFB1FA81F701FA68
:1003000007F6B0FA80F700FA07F6C7F120071EBF1C
:1003100020FA07FC46EA0C062037B6FBF4FCA7EBF4
:100320000507103F07F01F0BCBF120062CFA06F64D
:100330000CFA0BFB44BFB3460026202FA4BF5E4639
:100340004FF0000B5BEA060C08BF4FF0010B19EBF6
:100350000B0948EB0608ABFB027C06FB02CC0BFB4F
:1003600003CCC01B71EB0C01C1E70B4602464146B2
:100370004846BDE8F08B13B5084318BF4FF0FF3077
:100380000146AFF30080BDE81C4070470FB41CB5B8
:10039000074B06AA7B4469460090059800F08BF94C
:1003A0000020694600F09AF91CBC5DF814FB0000BF
:1003B0004503000070B5044685690068C10601D593
:1003C000302600E02026C00707D070BDD4E9012107
:1003D00030469047206A401C20626D1EF6D570BDE5
:1003E00070B5044685690078C00707D170BDD4E9AF
:1003F000012120209047206A401C20626D1EF6D506
:1004000070BD00002DE9F0410646002410687529F2
:10041000314616A510D0AFF30080002802DA404222
:1004200013A507E031688A0701D512A502E0490744
:1004300004D511A5012401E0AFF3008000210A22B8
:1004400006F1240709E0B0FBF2FCB0FBF2F302FB7B
:100450001C00303078541846491C0028F3D123463C
:100460002A463046BDE8F04100F0C6B80000000062
:100470002D0000002B000000200000002DE9F05F9F
:10048000894604464FF0000ADFF824B1FB44C0F867
:1004900020A02046E168884700287DD0252806D086
:1004A000D4E901219047206A401C2062F1E7002531
:1004B0005F462046E16888472028064607DB312E44
:1004C00005D2B81910F8200C08B10543F1E7A807C8
:1004D00001D525F00405C4F81CA00027C4F818A015
:1004E0002A2E09D0304601F00BFC38B304EB870804
:1004F000303EC8F8186019E059F8041B204604EB98
:1005000087029161E1688847012F064618D1E069AA
:10051000002820DA25F020051DE0D8F8180000EBAF
:10052000800006EB40003038C8F818002046E1682B
:100530008847064601F0E4FB0028EED1012F0AD0DF
:100540002E2E08D12046E16888477F1C0646022FE0
:1005500045F02005C4DBA069002803DA404245F0DD
:100560000105A061E80701D025F01005A6B1A6F1AC
:100570004100192802D8203645F400654A46314624
:10058000204625604D46FFF74FFE60B1012807D099
:10059000ED1D25F0070000E007E000F1080978E70D
:1005A00005F1040975E730467AE7206ABDE8F09F57
:1005B0009818000010B5431C02E010F8011B71B13F
:1005C0008107FAD14FF0013202C88C1A8C4314EA29
:1005D000C211F9D0C01A0A0603D0C01E10BDC01A3D
:1005E00010BD0A0401D0801E10BD0902FCD0401EBF
:1005F00010BD7047704770472DE9F0470D4699468A
:100600009246044600F124080168880604D5E06992
:1006100021F01001216000E00120A84201DD471B0C
:1006200000E00027A1697A1902EB0900081AA0610D
:100630002078C00602D42046FFF7BCFE002608E062
:10064000D4E901211AF806009047206A401C761C64
:1006500020624E45F4DB2078C0060AD52046FFF71D
:10066000A9FE06E0D4E9012130209047206A401C11
:100670002062381EA7F10107F4DC07E0D4E901216C
:1006800018F805009047206A401C2062281EA5F13A
:100690000105F3DC2046FFF7A3FE2078000602D513
:1006A0000220BDE8F0870120FBE7000001694A1C39
:1006B00002610878704700B58FB0CDE901310021A3
:1006C000059105497944CDE9031011466846FFF7C5
:1006D000D5FE0FB000BD0000E5FFFFFF0A6802F87D
:1006E000010B0A607047754600F02CF8AE46050015
:1006F0006946534620F00700854618B020B5FFF73D
:10070000BBFDBDE820404FF000064FF000074FF062
:1007100000084FF0000BAC46ACE8C009ACE8C009DB
:10072000ACE8C009ACE8C00921F007018D4670476C
:1007300010B50446AFF300802046BDE81040FFF737
:1007400087BD0000004870471000002001491820B4
:10075000ABBEFEE72600020070470000FEE7000087
:100760007047000072B600BFFEE70000B0B5044657
:1007700000F0E0F8054640F20000C2F20000007808
:10078000611C18BF044400BF00F0D4F8401BA04215
:10079000FAD3B0BD2DE9F04F82B000F13E4707F12A
:1007A000FF77860546EA972741F60046C4F202061F
:1007B000082243F6004EB04208BF0722C4F2010EE1
:1007C000072F38BF3A46002600274FF00008009256
:1007D00009E000BF08F101080237B8F1100F06F177
:1007E000040600F0A3800D68012202FA08F415EA5D
:1007F0000409EFD0D1F804B003220BF0030CACF1E4
:100800000105BA40012D6FEA020A0FD88268CD684F
:1008100002EA0A02BD402A4382604268A243CBF347
:10082000001404FA08F42243426005E0BCF1030F0F
:1008300002D14FF0030C1EE0C2688C6802EA0A0283
:10084000BC402243BCF1020FC26014D16FF003021E
:1008500002EA58020244D2F820C006F01C040F231A
:100860000D69A3402CEA0303A5402B431362D1F882
:1008700004B00BF0030C02680CFA07F302EA0A0258
:100880001A431BF4403F0260A4D0002243F6440305
:100890000192C4F202031A684FF6084C42F48042F7
:1008A0001A601A68CFF6FF7C02F480420192019A26
:1008B00028F00302724452F80C3006F00C050F24A5
:1008C000AC40A343009C04FA05F52B4342F80C30DE
:1008D000DEF808204B6842EA090543F60C4CDC02BE
:1008E00058BF22EA0905CEF80850C4F2010CDCF822
:1008F00000209C0242EA090558BF22EA0905CCF80B
:100900000050DEF804209C0342EA090558BF22EAA1
:100910000905CEF80450DEF80020DB0342EA0905A1
:1009200058BF22EA0905CEF8005053E702B0BDE8EF
:10093000F08F000040F25410C2F2000000687047CF
:1009400040F2000040F25411C2F20000C2F2000175
:1009500000780A68104408607047000080B543F6CC
:100960000040C4F20200016841F4007101600168B6
:1009700041F480610160016841F4807101600320ED
:1009800000F074F80F2000F005F800F027F80020C0
:1009900080BD000070B540F20006C2F2000640F2D1
:1009A00008013278C2F200014FF47A730968B3FB90
:1009B000F2F20446B1FBF2F1084600F087FE0F2C7C
:1009C0004FF0010508D838B94FF0FF30214600221A
:1009D000002500F01FF87460284670BD82B000202A
:1009E00043F640010190C4F202014A6842F4804299
:1009F0004A604A6802F480420192019A00900868B5
:100A000040F080500860086800F080500090009826
:100A100002B0704710B54EF60C5CCEF2000CDCF85C
:100A20000030C3F3022E8EF00704042C28BF0424E8
:100A3000BEF103034FF0FF3E0EFA04F438BF00236B
:100A4000A14399400EFA03F39A43114300F00F02B9
:100A500000F160430901043A03F56443624400284D
:100A600048BF02F10C03197010BD00004EF60C5186
:100A7000CEF200010A684FF6FF031A4060F30A2223
:100A800042F0806040F0FD7008607047F0B581B0C2
:100A90000446006810F0050F2DD06827C4F24727E0
:100AA00043F670060020C4F202063860FFF742FFEA
:100AB000054600BF56F8700C000105D5FFF73AFF58
:100AC000401B0228F6D93FE0D4E90101090741EAB9
:100AD0008010706101203860FFF72CFF054600BFD1
:100AE00056F8700C000105D4FFF724FF401B0228C4
:100AF000F6D929E0206880074FF0000058D543F66A
:100B00007006C4F20206009056F8300C47F2000757
:100B100040F0805046F8300C56F8300CC4F2000714
:100B200000F0805000900098386840F48070386081
:100B3000FFF700FF054600BF3868C00508D4FFF77F
:100B4000F9FE401B0228F7D9032001B0F0BD00BF19
:100B5000306810F4407013D0E16801F440718842AD
:100B60000ED0306840F64061C4F24721012220F4E3
:100B700040700A6000220A6030603068C00719D1F6
:100B8000E06856F8681C4FF6FF4300F4407221F409
:100B9000F811C0F6FF730340B2F5407F08BF194358
:100BA00046F8681C31686FF31F300843306000203E
:100BB00001B0F0BDFFF7BEFE054641F2883700BF29
:100BC00030688007DCD4FFF7B5FE401BB8424FF019
:100BD0000300F5D9ECE70000002804BF01207047AE
:100BE0002DE9F04143F60808C4F202080446D8F89B
:100BF000F8030D4600F00700884207D288F8F85342
:100C0000D8F8F80300F00700A84277D120688107E0
:100C100017D5410705D5D8F8001041F4E051C8F8C0
:100C20000010010705D5D8F8001041F46041C8F85C
:100C30000010D8F80010A26821F0F0011143C8F8A4
:100C40000010C00740D1D8F8F80300F00700A84210
:100C500007D988F8F853D8F8F80300F00700A8423D
:100C60004CD12068410707D5D8F80010E26821F47C
:100C7000E0511143C8F80010000708D5D8F800006B
:100C8000216920F4604040EAC100C8F8000000F08B
:100C90007DF8D8F8001041F63952C1F30311C0F6BF
:100CA0000002515C40F2080220FA01F140F2040017
:100CB000C2F200000068C2F200021160FFF76AFE93
:100CC0000020BDE8F08100BF6068811E022907D2C4
:100CD00058F8081C89015CBF0120BDE8F08111E0D3
:100CE000012807D158F8081C89035CBF0120BDE822
:100CF000F08107E058F8081C890703D40120BDE8FB
:100D0000F08100BFD8F8001021F003010843C8F8B3
:100D10000000FFF70FFE064641F28837D8F80000C2
:100D2000616800F00C00B0EB810F8CD0FFF702FE81
:100D3000801BB842F2D90320BDE8F08140F20800E0
:100D400043F60801C2F20000C4F20201006809681B
:100D500041F64952C1F38221C0F60002515CC840FD
:100D60007047000040F2080043F60801C2F200009C
:100D7000C4F202010068096841F64952C1F34231E8
:100D8000C0F60002515CC8407047000010B543F641
:100D90000404C4F20204606800F00C0142F2004056
:100DA0000829C0F2F40007D0042918BF10BD41F291
:100DB0000020C0F27A0010BD216801F03F022168D6
:100DC00023684902C3F3881106D4A1FB0001002364
:100DD000FFF764FA07E000BF41F20020C0F27A009A
:100DE0004843B0FBF2F021680222C1F3014102EB5B
:100DF0004101B0FBF1F010BD002804BF0120704795
:100E00002DE9F04182B00446007843F60006C007A1
:100E1000C4F202060CD0B06800F00C00042840F0C8
:100E200081803068800303D56068002800F06A8103
:100E3000207880071BD5B06810F00C0F09D0B0687F
:100E400000F00C00082840F087807068400200F134
:100E500083803068800703D5E068012840F0528124
:100E60003068216920F0F80040EAC1003060207845
:100E7000000713D4207840072AD4A569002D00F07C
:100E80003C81B06800F00C00082840F0A180012DE2
:100E900040F01081012002B0BDE8F08160690028B7
:100EA00040F20000C4F2472000F07E800121C0F82B
:100EB000801EFFF73FFD0546706F8007DAD4FFF70D
:100EC00039FD401B0228F7D9032002B0BDE8F081AC
:100ED000306C5FEAC0080AD400200190306C40F00A
:100EE00080503064306C00F080500190019847F2DF
:100EF0000007C4F200073868C00547D4386840F4DA
:100F000080703860FFF716FD054600BF3868C005E1
:100F10003CD4FFF70FFD401B0228F7D9032002B095
:100F2000BDE8F081B06800F00C00082803D17068BB
:100F300040023FF576AF6068B0F5803F07D0B0F56E
:100F4000A02F40F09B80306840F4802030603068F3
:100F500040F4803030609BE0E06800285CD00020E6
:100F6000C4F2472001210160FFF7E4FC054600BF01
:100F7000306880073FF574AFFFF7DCFC401B0228A8
:100F8000F6D9032002B0BDE8F08100BFA0680128B7
:100F900005D0052854D1306F40F004003067306F21
:100FA00040F00100306755E00021C0F8801EFFF7D7
:100FB000C1FC0546706F80077FF55CAFFFF7BAFC98
:100FC000401B0228F6D9032002B0BDE8F08100BF23
:100FD0000027C4F2472700203866FFF7ABFC022D3C
:100FE00005460DD13068800140F19080FFF7A2FCEA
:100FF000401B02284FF00300F4D902B0BDE8F08195
:101000003068800179D5FFF795FC401B02284FF02E
:101010000300F5D9F1E700BF0020C4F2472000210A
:101020000160FFF787FC0546306880077FF51FAF3A
:10103000FFF780FC401B02284FF00300F4D9DCE7E7
:10104000316F002821F001013167316F21F0040177
:1010500031677DD0FFF76EFC054641F2883700BF4F
:10106000306F800700F18680FFF764FC401BB842B8
:10107000F6D9032002B0BDE8F08100BF3168002836
:1010800021F480313160316821F4802131607BD0DE
:10109000FFF750FC054600BF306880033FF5C8AE3F
:1010A000FFF748FC401B6428F6D9032002B0BDE8D6
:1010B000F08100BF7068E16900F480028A4221D1AA
:1010C000216A00F03F028A421CD147F6C071626A71
:1010D0000140B1EB821F15D1A16A4FF6FF73C9031E
:1010E000994300F44032A1F580318A420AD1E16A85
:1010F00000F07060B0EB016F04D1002002B0BDE8D9
:10110000F08100BF012002B0BDE8F08104F11C05B0
:101110002FCD084340EA8210D9034FF6FF72914366
:10112000A1F5803140EA056008437060012038660F
:10113000FFF700FC044600BF30688001DDD4FFF7F4
:10114000F9FB001B02284FF00300F5D955E700BF5B
:10115000FFF7F0FB054641F2883700BF306F80078C
:1011600008D5FFF7E7FB401BB8424FF00300F5D965
:1011700043E700BFB8F1000F3FF57FAE306C20F0C1
:101180008050306479E600BFFFF7D4FB054600BF0E
:10119000306880037FF54CAEFFF7CCFB401B642822
:1011A0004FF00300F4D928E710B5006840684FEA13
:1011B0001043C0F3042E00F03F0CC0F34234CB7058
:1011C00081F801E081F802C00C700AB1002010BD66
:1011D000DCB2240904EB840403F00F0303EB4403A3
:1011E000020ACB704FEA1E1343EA830302F00F0298
:1011F00002EB43024A704FEA1C1242EA820200F0FC
:101200000F0000EB42008870002010BD10B5006890
:10121000836A4B6003696FF3DF338B600068C0F350
:101220000543C0F3062E00F07F0CC0F380540B7012
:1012300081F801E081F802C0CC700AB1002010BD35
:10124000020C1B0943EA830302F00F0202EB430284
:10125000040A0A704FEA1E1202EB820204F00F0326
:1012600003EB42024A704FEA1C1202EB820200F0CA
:101270000F0000EB42008870002010BD002804BF62
:1012800001207047B0B50446407F20B90020207788
:10129000204600F071F8022060772168C868C00617
:1012A0005ED4CA20486253204862C868400615D4FC
:1012B000C86840F08000C860FFF73CFB2168CA683E
:1012C00052060BD4054600BFFFF734FB401BB0F5B8
:1012D0007A7F49D82168C8684006F5D588684FF6F6
:1012E000BF72CFF68F7210408860D4E9010CD4E948
:1012F0000335626928438D681043284388600B6179
:10130000086940EA0C400861C86820F08000C860A5
:10131000886880061AD447F65F70C0F20100C86082
:10132000FFF708FB054600BF2168C86880060DD49A
:10133000FFF700FB401BB0F57A7FF5D904206077FA
:101340002068FF2141620120B0BD00BF086C20F47D
:1013500080200864A0690A6C10430864FF2048627A
:10136000012060770020B0BD042060772068C1684C
:10137000FF2141620120B0BD80B584B0006842F613
:101380000002C4F20002002190420291019101D0BA
:1013900004B080BD022000904FF480700390684636
:1013A000FFF774FB002818BFFFF7DCF940F63C603C
:1013B000C4F247200121016004B080BD2DE9F04353
:1013C00081B00446007F01284FF0020000F09F80AA
:1013D0000123237760773AB14878CA788E78000283
:1013E00040EA024846E000BF48784FF0CD0CC20604
:1013F00042BF00F0EF000A304870CA784FF0010990
:10140000A2F10A07FDB205FB0CF5EB0A03EB83031F
:101410005FFA82FEA7EB43038E7809EBD525BEF178
:10142000090F88BF43EA0512A0F10A03DDB205FBEC
:101430000CF5EF0A07EB8707A3EB470309EBD5276A
:10144000092888BF43EA0710C0B2D2B2000240EABE
:101450000248A6F10A02D3B203FB0CF3DF0AF0B292
:1014600007EB8707A2EB470209EBD323092888BFC4
:1014700042EA03160F782168CA2048625320486266
:10148000C868400614D4C86840F08000C860FFF700
:1014900051FA2168CA6852060AD40546FFF74AFA8B
:1014A000401BB0F57A7F35D82168C8684006F5D56D
:1014B000F0B240EA08007A0320F0C0001043486010
:1014C000C86820F08000C8608868800618D447F695
:1014D0005F70C0F20100C860FFF72CFA054600BF3C
:1014E0002168C86880060BD4FFF724FA401BB0F5CA
:1014F0007A7FF5D9042060772168012003E000BFDE
:10150000012060770020FF224A620021217701B08C
:10151000BDE8F083042060772168C8680120F2E705
:101520002DE9F04F81B00446007F01284FF0020002
:1015300000F0C3800D46012121776077216888681B
:1015400032B140060CD44FF0000885F803800AE061
:10155000400611D44FF0000885F803800FE000BF6B
:10156000E8784FEA80586A78287895F802A0120245
:1015700042EA004947E000BFE8784FEA80582A78FD
:101580004FF0CD0CA2F10A00C6B206FB0CF66B7848
:10159000F70A4FF0010B5FFA82FE07EB87070BEBB0
:1015A000D62695F802A0A0EB4700BEF1090F88BF30
:1015B00040EA0612A3F10A06F7B207FB0CF7F80A95
:1015C0005FFA82FEDAB200EB8000A6EB40000BEB84
:1015D000D726092A88BF40EA0613AAF10A02D8B220
:1015E000D3B203FB0CF30002DF0A40EA0E495FFAB4
:1015F0008AF007EB8707A2EB47020BEBD3230928FE
:1016000088BF42EA031ACA20486253204862C86869
:10161000400615D4C86840F08000C860FFF78AF91A
:101620002168CA6852060BD4064600BFFFF782F94C
:10163000801BB0F57A7F43D82168C8684006F5D58D
:101640005FFA8AF040EA090047F67F7240EA080034
:10165000C0F27F0210400860886820F48020886013
:10166000D5E903028B68104318438860C86820F0EE
:101670008000C8608868800618D447F65F70C0F2A2
:101680000100C860FFF756F9054600BF2168C86829
:1016900080060BD4FFF74EF9401BB0F57A7FF5D9E1
:1016A000042060772168012003E000BF01206077FB
:1016B0000020FF224A620021217701B0BDE8F08FAF
:1016C000042060772168C8680120F2E7411E0020ED
:1016D000B0EB116F1CBF012070474EF21002CEF22A
:1016E000000251604EF62351CEF20001F0230B7040
:1016F0000721906011607047002804BF01207047E7
:1017000010B5044690F8410028B9002084F8400044
:10171000204600F021F8242084F841002068C168A8
:1017200021F40051C160204600F0FCF920680169F5
:1017300021F490410161416921F02A014161C168B0
:1017400041F40051C16000202021606484F8411000
:1017500084F84210606310BD016841F20000C4F2D9
:101760000100814218BF704780B586B0002143F662
:1017700030020191C4F20202536900F5704043F057
:1017800010035361536903F010030193019B01910E
:10179000136843F001031360126802F00102019222
:1017A000019A4FF4C06201920222CDE90221032185
:1017B00004910721059101A9FEF7ECFF06B0BDE8F1
:1017C000804070472DE9F041044690F84100202800
:1017D0001CBF0220BDE8F0810D4600294FF001003A
:1017E00000F0AA801646002A08BFBDE8F08100205C
:1017F00060642120984684F84100FFF79BF8A68496
:10180000E684A1680646B1F5805F02D12069002810
:1018100062D02F460025E08C002861D018F101002D
:1018200018D0B8F1000F37D1216808E017F8010B84
:101830004860E08C0138E084E08C002851D00868D2
:10184000000673D5002FF1D135F8020B00276FF396
:101850005F20EDE7216802E00868000609D4086807
:10186000000606D4086800065CBF08685FEA0060EE
:10187000F2D51FB117F8010B05E000BF35F8020BD8
:1018800000276FF35F204860E08C0138E084E08C33
:101890000028E4D125E000BF216800BF08680006E9
:1018A00008D4FFF747F8801B404541D82168C86835
:1018B000F4E700BF17B117F8010B04E035F8020B8D
:1018C00000276FF35F204860E08C0138E084E08CF3
:1018D0000028E3D105E000BF0027E08C00289DD15F
:1018E0002168086840061FD4B8F1000F1ED018F117
:1018F00001000FD10868400616D40868400613D4CA
:101900000868400610D4086840064FF00000F1D582
:101910000FE000BFFFF70EF8801B404508D8206895
:10192000C16800684006F5D5002002E0FFF702F824
:101930000320202184F84110BDE8F081FEE700007B
:1019400083B0002043F630010290C4F202010A681D
:1019500042F004020A600A6802F004020292029A4B
:1019600001900A6842F080020A600A6802F0800270
:101970000192019A0090086840F001000860086830
:1019800000F001000090009803B0704710B586B0D9
:1019900040F2EC0042F600010024C2F20000C4F262
:1019A00000017F22C0E9001400F10801CDE90244E2
:1019B000CDE90044FF231CC1C0E90544FFF75EFCEC
:1019C000002818BFFEF7CEFE43F21400ADF8040065
:1019D00040F2EC00C2F2000001A901228DF806409D
:1019E000CDE90444FFF79CFD002818BFFEF7BAFEBE
:1019F00040F20120C2F22640009040F2EC00C2F218
:101A0000000069460122FFF7D9FC002818BFFEF745
:101A1000A9FE06B010BD000080B540F20C1041F2E6
:101A20000001C2F20000C4F2010100234FF00C0CCF
:101A30004FF4E13280E80E00C0E90333C0E905C38A
:101A4000C361FFF759FE002808BF80BDBDE8804094
:101A5000FEF788BEFEE70000FEE7000070470000CA
:101A600070470000FEF76CBFB0B592B0002443F69B
:101A700040000B94CDE909440594CDE90344CDE938
:101A800001440094C4F202000168022541F0805133
:101A90000160006800F080500090009847F200005C
:101AA0000094C4F20000016841F4804101600068C4
:101AB000A82100F4804000900098052006904FF483
:101AC00080300790012008904FF480000D90042092
:101AD0000E90119006A80C95CDE90F15FFF78CF923
:101AE00010B172B6FEE700BF0F20CDE901054FF43B
:101AF000A05004904FF48050059001A80521039454
:101B0000FFF76AF810B172B6FEE700BF12B0B0BDC1
:101B10004EF68850CEF20000016841F47001016079
:101B20007047000010B504460068D4E902C223697A
:101B3000016921F4405111430161626943EA0C01DA
:101B4000E3691143C268194349F20C639A43114394
:101B5000C1604169A26921F4407141F2004311431F
:101B600040F48062C4F201039A42416102D1FFF75E
:101B7000F9F801E0FFF7E2F8E16963681922B1F5CD
:101B8000004FA0FB020123D15A00DB0FFEF786FBBA
:101B900048F21F51C5F2EB11A0FB01235A094FF681
:101BA0009C73C0F6FF7303F1805302FB03003223E2
:101BB00003EBC000A0FB01014FF4F87000EA111024
:101BC00000EB0210C1F3421108442168886010BD87
:101BD0009A009B0FFEF762FB48F21F51C5F2EB1112
:101BE000A0FB01235A094FF69C73C0F6FF7302FB5A
:101BF0000300322303EB0010A0FB0101F02000EAF8
:101C0000511000EB0210C1F34311084421688860B1
:101C100010BD0000FEE7000082B0FEF79FFEFFF758
:101C200023FFFFF78DFEFFF7B1FEFFF7F5FE40F251
:101C30007004C2F2000440F2EC0840F20C1504F10A
:101C40000409C2F2000804F11807C2F200050FF2FD
:101C50009C0A40F60D2B00BF404649460022FFF784
:101C6000D5FA404621460022FFF79EFAE0786378D5
:101C7000A67800F5FA62384617A10096FEF786FBB3
:101C80003846FEF797FC82B228463946FF23FFF715
:101C900099FD22796379A679384651460096FEF778
:101CA00075FB3846FEF786FC82B228463946FF238C
:101CB000FFF788FD0020A0763846A4F818B0FEF79C
:101CC00079FC82B228463946FF23FFF77BFD4FF4AB
:101CD0007A70FEF74BFDBFE7253032642F25303296
:101CE000642F253032640D0A000000002530326474
:101CF0003A253032643A253032640D0A0000000083
:101D000030380A2801D20120704700207047F1EED8
:101D1000100A4FF6FF71C0F2C03120EA010040F016
:101D20004070E1EE100A7047040000080000000057
:101D30000000000200010000100000000000000090
:101D40000001020304060708090000000001020365
:101D500004000000781D00080000002010000000B2
:101D6000EC010008881D0008100000204807000052
:101D70000C0200080000000001000000100000003C
:081D80000024F4000000000043
:040000050800018965
:00000001FF
