:020000040800F2
:10000000B00A002081020008752C0008192A000897
:10001000712C0008250800082134000800000000A9
:100020000000000000000000000000007D2C00081F
:100030003508000800000000792C0008812C000819
:100040009B0200089B0200089B0200089B0200081C
:100050009B0200089B0200089B0200089B0200080C
:100060009B0200089B0200089B0200089B020008FC
:100070009B0200089B0200089B0200089B020008EC
:10008000290800089B0200089B02000800000000ED
:100090000000000000000000000000009B020008BB
:1000A0009B0200083D2D00089B0200089B020008EF
:1000B0009B0200089B0200089B0200089B020008AC
:1000C0009B0200089B0200089B0200089B0200089C
:1000D0009B0200089B020008393300080000000062
:1000E0009B0200089B0200089B0200080000000021
:1000F0000000000000000000000000009B0200085B
:10010000000000009B0200089B0200089B02000800
:1001100000000000000000000000000000000000DF
:100120009B0200089B0200089B0200089B0200083B
:100130009B0200080000000000000000000000001A
:100140000000000000000000000000009B0200080A
:100150009B0200089B0200089B0200089B0200080B
:100160009B0200089B020008000000000000000045
:10017000000000000000000000000000000000007F
:10018000000000009B0200080000000000000000CA
:100190009B0200089B02000800F002F800F060F8E3
:1001A00014A696E8000CB244B344DA4501D100F03D
:1001B00057F8BAE80F000FA696E83000A5EB040543
:1001C00004EB0607AAEB0704A7F101074FEA151590
:1001D0004FEA3414A4F10104AC4201D300F040F81A
:1001E00013F0010F18BFFB1A43F0010300F001F8F0
:1001F000DBE718477433000094330000103A24BF43
:1002000078C878C1FAD8520724BF30C830C144BF7B
:1002100004680C6070470000704700000023002451
:1002200000250026103A28BF78C1FBD8520728BF06
:1002300030C148BF0B607047732900F0AE810020C9
:1002400070471FB503F072F900F08AFA040000202D
:10025000002103F055F9401C60601FBD10B510BDB2
:1002600000F059FA1146FFF7ECFF03F0F7F800F041
:1002700089FA03B4FFF7F2FF03BC00F0CBFA0000E9
:100280000948804709480047FEE7FEE7FEE7FEE72A
:10029000FEE7FEE7FEE7FEE7FEE7FEE70448054966
:1002A000054A064B70470000292D000899010008F7
:1002B000B0040020B00A0020B0060020B0060020E4
:1002C00053EA020C00F069802DE9F04B4FF0000674
:1002D000002B1FBFB3FA83F503FA05F424FA05F6E1
:1002E0005E4012BF1643B2FA82F502FA05F4C5F178
:1002F00020051EBF22FA05FC44EA0C04203556EA0C
:10030000044C4FEA144418BF641C4FF000084FF02F
:100310000009904271EB030C39D3002919BFB1FADF
:1003200081F701FA07F6B0FA80F700FA07F6C7F18D
:1003300020071EBF20FA07FC46EA0C062037B6FB52
:10034000F4FCA7EB0507103F07F01F0BCBF12006CD
:100350002CFA06F60CFA0BFB44BFB3460026202FFE
:10036000A4BF5E464FF0000B5BEA060C08BF4FF0DF
:10037000010B19EB0B0948EB0608ABFB027C06FBF3
:1003800002CC0BFB03CCC01B71EB0C01C1E70B468D
:10039000024641464846BDE8F08B13B5084318BFF6
:1003A0004FF0FF300146AFF30080BDE81C407047BE
:1003B0000FB41CB5074B06AA7B446946009005980C
:1003C00000F0C1F80020694600F0D0F81CBC5DF8D0
:1003D00014FB0000B10100002DE9F0410E46044677
:1003E000002020622046E168884730B3252805D0E8
:1003F000D4E901219047206A401CF2E7E1682046D9
:1004000000278847050018D0A5F14100192802D817
:1004100020354FF400673246294620462760FFF713
:100420000BFF40B1012804D0F61D26F00706083660
:10043000D8E7361DD6E72846DAE7206ABDE8F0811E
:1004400070B50C460546012A05D02878800600D5EF
:10045000EA69002302E0012305E05B1C934202D21B
:10046000E05C0028F9D1A869E618C01AA861286ADA
:10047000184428622846AFF3008004E0D5E9012142
:1004800014F8010B9047B442F8D32846AFF300802C
:1004900070BD70B5064600F04DF80468054630465C
:1004A0000A22002100F07DF82C6070BD10B5431CBD
:1004B00002E010F8011B71B18107FAD14FF001324F
:1004C00002C88C1A8C4314EAC211F9D0C01A0A0669
:1004D00003D0C01E10BDC01A10BD0A0401D0801E7A
:1004E00010BD0902FCD0401E10BD4FF000020429CF
:1004F000C0F0128010F0030C00F08D80CCF1040CE1
:10050000BCF1020F18BF00F8012BA8BF20F8022B86
:10051000A1EB0C0100F07FB85FEAC17C24BF00F8BA
:10052000012B00F8012B48BF00F8012B70477047E2
:1005300070477047004870471800002001694A1C46
:1005400002610878704700B58FB0CDE90131002114
:10055000059105497944CDE9031011466846FFF736
:100560003BFF0FB000BD0000E5FFFFFF0A6802F887
:10057000010B0A60704710B5436913B1AFF30080F7
:1005800001E0FFF75DFF012010BD127800F12401AA
:100590000A7000224A700122EDE711684FF0FF3225
:1005A000E9E72DE9F04791460F46804604460026CC
:1005B00014F8015B2DB100F057F80068405DC007EA
:1005C000F6D12B2D02D02D2D18D0641E4A46394667
:1005D000204600F051F827B13968A14201D1C7F88F
:1005E00000804FF0020471050BD54042002803DD66
:1005F000FFF7A0FF0460A007BDE8F08746F480661F
:10060000E4E70028F8DAFFF795FF04606FF0004098
:10061000F2E74FF0000200B51346944696462039A3
:1006200022BFA0E80C50A0E80C50B1F12001BFF4AB
:10063000F7AF090728BFA0E80C5048BF0CC05DF811
:1006400004EB890028BF40F8042B08BF704748BF5F
:1006500020F8022B11F0804F18BF00F8012B7047D3
:10066000004870471800002010B500F079F8001D10
:1006700010BD00BF8D2E00002DE9F05F82461546AB
:100680008B4600270AF10104B9460078302801D0D2
:100690009DB113E014F8010B0127782803D05828E6
:1006A00001D045B10AE00DB1102D07D1002714F893
:1006B000010B102502E0082500E00A250026B046BF
:1006C0000EE005FB080005FB06F101271FFA80F884
:1006D00001EB1046B6F5803F00D3B94614F8010B84
:1006E000294600F041F80028EBDABBF1000F05D0F5
:1006F0000FB1641E00E05446CBF80040B9F1000F82
:1007000006D0FFF717FF02210160C81EBDE8F09F69
:1007100048EA0640FAE77546FFF7A2FFAE46050035
:100720006946534620F00700854618B020B5FFF70C
:10073000B5FDBDE820404FF000064FF000074FF038
:1007400000084FF0000BAC46ACE8C009ACE8C009AB
:10075000ACE8C009ACE8C00921F007018D4670473C
:1007600000487047380000203A2800D2303820F086
:100770002002412A01D3A2F13700884201D34FF071
:10078000FF30704710B50446AFF300802046BDE847
:100790001040FFF76EBD000030B44FF0013C50F840
:1007A000042B51F8043BCCFA52F4D51A20D1FCB9F1
:1007B00050F8042B51F8043BCCFA52F4D51A17D157
:1007C000B4B950F8042B51F8043BCCFA52F4D51AC2
:1007D0000ED16CB950F8042B51F8043BCCFA52F40A
:1007E000D51A05D1002CDAD030BC4FF0000070478C
:1007F00029BAB1FA81F111F01801D1F12000844039
:10080000F2D1CA40CB4012F0FF0213F0FF0330BC1C
:10081000D01A704701491820ABBEFEE7260002003F
:1008200070470000FEE7000040F26C30C2F20000AA
:1008300000F060B87047000072B600BFFEE700002D
:1008400070B5866D044600F02BFB94F83510022934
:1008500028D105462068216C026822F01602026049
:10086000426922F08002426109B9A16C19B10168A4
:1008700021F008010160016821F00101016000BF61
:1008800020680068C00715D000F00AFB401B06284E
:10089000F6D320206065032084F83500002184F819
:1008A000341070BD802060650120002184F8341070
:1008B00070BD00BFE06D3F2101FA00F0B060012083
:1008C00084F835000020002184F8341070BD000049
:1008D00090F83510022909D1052180F835100068FB
:1008E000016821F00101016000207047802141650D
:1008F00001207047F0B581B004460020009040F21E
:100900001000C2F200000268D4E9166048F2B51384
:1009100037680821C1F64E3381403942A2FB0325D6
:100920000CD0226813685B0708D5136823F0040312
:100930001360B160616D41F0010161650121814089
:10094000394208D022685269120604D5B160616D3F
:1009500041F00201616504218140394208D02268DA
:100960001268920704D5B160616D41F004016165C0
:1009700010218140394217D020680268120713D530
:10098000B16002680168520308D4C90508D401683F
:1009900021F008010160216C21B905E008033FD472
:1009A000216C09B120468847E16D202000FA01F250
:1009B0003A4241D020680368DB063DD5B26094F826
:1009C00035300268052B1BD122F016020260426905
:1009D00022F080024261226C0AB9A26C1AB102684C
:1009E00022F0080202603F208840B060012084F8B5
:1009F0003500216D0020002984F8340052D157E0E1
:100A00000168520310D4C90512D4016821F0100105
:100A10000160012084F83500002084F8340007E0EC
:100A2000A16C0029BED1BFE7080301D4616C00E0CE
:100A3000E16B09B120468847606DC8B3606DC0079F
:100A40002ED0052084F835002068A90A026822F01B
:100A500001020260009A01328A4200921AD80268AA
:100A6000D20717D0009A01328A42009212D8026847
:100A7000D2070FD0009A01328A4200920AD8026847
:100A8000D20707D0009A01328A42009202D8026847
:100A9000D207DFD1012084F83500002084F834002B
:100AA000E16C29B1204601B0BDE8F040084700BF25
:100AB00001B0F0BD2DE9F041044600F0F1F9ECB1D0
:100AC0000546022084F835000020216884F83400AF
:100AD000086820F00100086021680868C00711D08C
:100AE00000F0DEF9401B0528F6D90325202303205A
:100AF000636584F83550BDE8F08100BF0120BDE892
:100B0000F08100BF086848F23F02CFF21002D4E93A
:100B1000013500EA020C04F10C0898E8C10143EA2F
:100B20000C032B431843D4E9072E304338431043BA
:100B3000626A40EA0E00042A40EA08031CD1206BD6
:100B4000D4E90A2E40EA0E00184308604869BEF155
:100B5000000F20F0030040EA020040F0040C11D026
:100B6000B8F5005F36D0B8F1000F45D1022A46D063
:100B7000012A3BD032B942E00B60486920F00700FF
:100B800040EA020C01F0F8004AF6AB221038CAF62F
:100B9000AA22A0FB02231A0943F25E53C1F814C033
:100BA000C0F600039A5C40F2FF335F284FF03F002D
:100BB00021EA030100FA02F088BF0431C4E91612E9
:100BC0008860002301250020636584F83550BDE866
:100BD000F08100BF032AD5D8012540230120DFE89A
:100BE00002F0030E030500BF82E700BFAEF1C07044
:100BF000B0FA80F0400904E0032A04D3C2D1CEF356
:100C000000600028BED0012540230120636584F8E0
:100C10003550BDE8F081000090F834C0BCF1010F00
:100C200004BF0220704770B54FF0010C80F834C04B
:100C3000D0F858E090F835C0BCF1010F38D14FF032
:100C4000020C80F835C04FF0000CC0F854C0D0F84A
:100C500000C08468056CC06DDCF80060402C26F490
:100C60008026CCF80060CCF804300B4604BF134655
:100C70000A463F2101FA00F0CCF80830CCF80C20ED
:100C8000CEF80800DCF8000040F01600CCF80000B8
:100C90002DB1DCF8000040F00800CCF80000DCF8D2
:100CA000000040F00100CCF80000002070BD00BF43
:100CB000002180F83410022070BD0000B0B5044659
:100CC00000F0EEF8054640F20800C2F2000000789D
:100CD000611C18BF044400BF00F0E2F8401BA042B2
:100CE000FAD3B0BD2DE9F04F82B000F13E4707F1D5
:100CF000FF77860546EA972741F20006C4F202060E
:100D0000072243F6004EB04208BF0422C4F2010E8F
:100D1000042F38BF3A46002600274FF00008009203
:100D200009E000BF08F101080237B8F1100F06F121
:100D3000040600F0A3800D68012202FA08F415EA07
:100D40000409EFD0D1F804B003220BF0030CACF18E
:100D50000105BA40012D6FEA020A0FD88268CD68FA
:100D600002EA0A02BD402A4382604268A243CBF3F2
:100D7000001404FA08F42243426005E0BCF1030FBA
:100D800002D14FF0030C1EE0C2688C6802EA0A022E
:100D9000BC402243BCF1020FC26014D16FF00302C9
:100DA00002EA58020244D2F820C006F01C040F23C5
:100DB0000D69A3402CEA0303A5402B431362D1F82D
:100DC00004B00BF0030C02680CFA07F302EA0A0203
:100DD0001A431BF4403F0260A4D0002243F64403B0
:100DE0000192C4F202031A684FF6084C42F48042A2
:100DF0001A601A68CFF6FF7C02F480420192019AD1
:100E000028F00302724452F80C3006F00C050F244F
:100E1000AC40A343009C04FA05F52B4342F80C3088
:100E2000DEF808204B6842EA090543F60C4CDC0268
:100E300058BF22EA0905CEF80850C4F2010CDCF8CC
:100E400000209C0242EA090558BF22EA0905CCF8B5
:100E50000050DEF804209C0342EA090558BF22EA4C
:100E60000905CEF80450DEF80020DB0342EA09054C
:100E700058BF22EA0905CEF8005053E702B0BDE89A
:100E8000F08F0000426902EA0103914341EA034105
:100E900081617047002A08BF090481617047000022
:100EA00040F2A840C2F200000068704740F208001B
:100EB00040F2A841C2F20000C2F2000100780A68C4
:100EC000104408607047000080B543F60040C4F24B
:100ED0000200016841F400710160016841F4806121
:100EE0000160016841F480710160032000F086F820
:100EF0000F2000F005F800F027F8002080BD00006A
:100F000070B540F20806C2F2000640F210013278D5
:100F1000C2F200014FF47A730968B3FBF2F204469F
:100F2000B1FBF2F1084600F061FB0F2C4FF0010518
:100F300008D838B94FF0FF3021460022002500F0D4
:100F400031F87460284670BD82B0002043F640013D
:100F50000190C4F202014A6842F480424A604A6841
:100F600002F480420192019A0090086840F080509B
:100F70000860086800F080500090009802B0704748
:100F8000002848BF704700F01F01012202FA01F15A
:100F90001C2202EAD0004EF20012CEF20002815072
:100FA0007047000010B54EF60C5CCEF2000CDCF879
:100FB0000030C3F3022E8EF00704042C28BF042453
:100FC000BEF103034FF0FF3E0EFA04F438BF0023D6
:100FD000A14399400EFA03F39A43114300F00F0224
:100FE00000F160430901043A03F5644362440028B8
:100FF00048BF02F10C03197010BD00004EF60C51F1
:10100000CEF200010A684FF6FF031A4060F30A228D
:1010100042F0806040F0FD7008607047002804BF17
:10102000012070472DE9F04143F60808C4F2020898
:101030000446D8F8F8030D4600F00700884207D2AE
:1010400088F8F853D8F8F80300F00700A84277D1E1
:101050002068810717D5410705D5D8F8001041F45D
:10106000E051C8F80010010705D5D8F8001041F488
:101070006041C8F80010D8F80010A26821F0F00113
:101080001143C8F80010C00740D1D8F8F80300F0A9
:101090000700A84207D988F8F853D8F8F80300F0F9
:1010A0000700A8424CD12068410707D5D8F80010A6
:1010B000E26821F4E0511143C8F80010000708D598
:1010C000D8F80000216920F4604040EAC100C8F867
:1010D000000000F07DF8D8F8001043F24652C1F34A
:1010E0000311C0F60002515C40F2100220FA01F137
:1010F00040F20C00C2F200000068C2F2000211606F
:10110000FFF7FEFE0020BDE8F08100BF6068811E91
:10111000022907D258F8081C89015CBF0120BDE8EC
:10112000F08111E0012807D158F8081C89035CBF41
:101130000120BDE8F08107E058F8081C890703D4B6
:101140000120BDE8F08100BFD8F8001021F00301B4
:101150000843C8F80000FFF7A3FE064641F28837AF
:10116000D8F80000616800F00C00B0EB810F8CD063
:10117000FFF796FE801BB842F2D90320BDE8F0814C
:1011800040F2100043F60801C2F20000C4F202016E
:101190000068096843F25652C1F38221C0F600028A
:1011A000515CC8407047000040F2100043F608014F
:1011B000C2F20000C4F202010068096843F256520C
:1011C000C1F34231C0F60002515CC84070470000D4
:1011D00010B543F60404C4F20204606800F00C0188
:1011E00042F200400829C0F2F40007D0042918BFD9
:1011F00010BD41F20020C0F27A0010BD216801F05C
:101200003F02216823684902C3F3881106D4A1FB79
:1012100000010023FFF754F807E000BF41F200206F
:10122000C0F27A004843B0FBF2F021680222C1F319
:10123000014102EB4101B0FBF1F010BD002804BFF9
:10124000012070472DE9F04182B00446007843F652
:101250000006C007C4F202060CD0B06800F00C0013
:10126000042840F081803068800303D5606800283E
:1012700000F06A81207880071BD5B06810F00C0F51
:1012800009D0B06800F00C00082840F08780706832
:10129000400200F183803068800703D5E0680128B0
:1012A00040F052813068216920F0F80040EAC10026
:1012B00030602078000713D4207840072AD4A5692D
:1012C000002D00F03C81B06800F00C00082840F0D0
:1012D000A180012D40F01081012002B0BDE8F08115
:1012E0006069002840F20000C4F2472000F07E80D0
:1012F0000121C0F8801EFFF7D3FD0546706F8007FF
:10130000DAD4FFF7CDFD401B0228F7D9032002B045
:10131000BDE8F081306C5FEAC0080AD4002001907B
:10132000306C40F080503064306C00F080500190A0
:10133000019847F20007C4F200073868C00547D497
:10134000386840F480703860FFF7AAFD054600BF9A
:101350003868C0053CD4FFF7A3FD401B0228F7D92D
:10136000032002B0BDE8F081B06800F00C0008284E
:1013700003D1706840023FF576AF6068B0F5803FFA
:1013800007D0B0F5A02F40F09B80306840F480205B
:101390003060306840F4803030609BE0E0680028C6
:1013A0005CD00020C4F2472001210160FFF778FDE6
:1013B000054600BF306880073FF574AFFFF770FD4A
:1013C000401B0228F6D9032002B0BDE8F08100BF1F
:1013D000A068012805D0052854D1306F40F00400E2
:1013E0003067306F40F00100306755E00021C0F8F1
:1013F000801EFFF755FD0546706F80077FF55CAFD7
:10140000FFF74EFD401B0228F6D9032002B0BDE8CD
:10141000F08100BF0027C4F2472700203866FFF79D
:101420003FFD022D05460DD13068800140F19080CE
:10143000FFF736FD401B02284FF00300F4D902B03D
:10144000BDE8F0813068800179D5FFF729FD401BA8
:1014500002284FF00300F5D9F1E700BF0020C4F2E5
:10146000472000210160FFF71BFD0546306880071B
:101470007FF51FAFFFF714FD401B02284FF003005C
:10148000F4D9DCE7316F002821F001013167316FB9
:1014900021F0040131677DD0FFF702FD054641F2DE
:1014A000883700BF306F800700F18680FFF7F8FCB7
:1014B000401BB842F6D9032002B0BDE8F08100BF5E
:1014C0003168002821F480313160316821F48021B5
:1014D00031607BD0FFF7E4FC054600BF3068800335
:1014E0003FF5C8AEFFF7DCFC401B6428F6D90320AB
:1014F00002B0BDE8F08100BF7068E16900F48002CD
:101500008A4221D1216A00F03F028A421CD147F66B
:10151000C071626A0140B1EB821F15D1A16A4FF61A
:10152000FF73C903994300F44032A1F580318A4228
:101530000AD1E16A00F07060B0EB016F04D10020C5
:1015400002B0BDE8F08100BF012002B0BDE8F0812B
:1015500004F11C052FCD084340EA8210D9034FF651
:10156000FF729143A1F5803140EA05600843706045
:1015700001203866FFF794FC044600BF3068800104
:10158000DDD4FFF78DFC001B02284FF00300F5D9D6
:1015900055E700BFFFF784FC054641F2883700BFDE
:1015A000306F800708D5FFF77BFC401BB8424FF037
:1015B0000300F5D943E700BFB8F1000F3FF57FAE58
:1015C000306C20F08050306479E600BFFFF768FC93
:1015D000054600BF306880037FF54CAEFFF760FC26
:1015E000401B64284FF00300F4D928E7411E002077
:1015F000B0EB116F1CBF012070474EF21002CEF20B
:10160000000251604EF62351CEF20001F0230B7020
:10161000072190601160704770470000704700001C
:1016200090F83C20012A4FF0020241D010B580F81A
:101630003D200268D2F804E0D2F808C00C682EF011
:101640007003234340F6FF34C4F20004A242536007
:1016500010DCB2F1804F1ED040F20043C4F2000310
:101660009A4218D040F60003C4F200039A4212D006
:1016700016E000BF40F60043C4F200039A420AD0CD
:1016800044F20003C4F201039A4204D00023C4F2DE
:1016900001039A4204D149682CF0800319439160F8
:1016A0000121002280F83D1080F83C20BDE8104068
:1016B00010467047002804BF0120704710B504464B
:1016C00090F83D0028B9002084F83C00204600F046
:1016D0001FF8022084F83D002068211D01F034FB32
:1016E000012084F8460084F83E0084F83F0084F826
:1016F000400084F8410084F8420084F8430084F8F4
:10170000440084F8450084F83D00002010BD00002E
:1017100080B582B00068B0F1804F1FD00021C4F2C4
:101720000101884229D10020019043F64000C4F213
:1017300002004168002241F001014160406800213F
:1017400000F00100019001981920FFF72BFC1920EF
:1017500002B0BDE88040FFF713BC00BF002000903E
:1017600043F64000C4F20200016841F0010101604B
:10177000006800F001000090009802B080BD0000F9
:1017800090F83D1001291CBF01207047022180F80C
:101790003D10006840F6FF32C168C4F2000290427A
:1017A00041F00101C1600FDCB0F1804F1DD040F26B
:1017B0000041C4F20001884217D040F60001C4F293
:1017C0000001884211D017E040F60041C4F2000148
:1017D00088420AD044F20001C4F20101884204D0D8
:1017E0000021C4F20101884206D1816801F007019D
:1017F000062904BF00207047016841F00101016023
:101800000020704790F83C20012A4FF0020200F0BF
:10181000C58080B580F83D20D0F800C04FF67772C3
:10182000DCF8083023EA0202CCF808200B684F2BC2
:1018300028DC1F2B44DD202B45D0302B43D0402B00
:1018400040F0AE80D1F804E0C968DCF82030DCF864
:10185000202022F00102CCF82020DCF8182022F011
:10186000F00242EA011123F00A0242EA0E02CCF829
:101870001810CCF82020DCF8081041F0470121F0C6
:10188000300180E06F2B27DDB3F5005F48D0B3F562
:10189000805F7AD0702B40F08380D1E901E3C96882
:1018A000DCF8082043EA0E0322F47F4243EA0121D8
:1018B0001143CCF80810DCF8081041F0770162E021
:1018C0000BB1102B6CD1DCF8081021F0700119431A
:1018D00041F0070157E000BF502B35D0602B5FD19E
:1018E000D1F804E0C968DCF82030DCF8202022F0D0
:1018F0001002CCF82020DCF8182022F4704242EAD2
:10190000013123F0A00242EA0E12CCF81810CCF8F4
:101910002020DCF8081041F0670121F0100132E0CE
:10192000D1E901E3C968DCF8082043EA0E0322F498
:101930007F4243EA01211143CCF80810DCF808107B
:1019400041F480411FE000BFD1F804E0C968DCF831
:101950002030DCF8202022F00102CCF82020DCF836
:10196000182022F0F00242EA011123F00A0242EAB2
:101970000E02CCF81810CCF82020DCF8081041F04A
:10198000570121F02001CCF808100022012180F835
:101990003D10002180F83C10BDE8804010467047A3
:1019A0000122F3E77047000070B504460068C5687F
:1019B0000669B10716D515F0020113D06FF00201C8
:1019C0000161012121778069800703D02046FFF75C
:1019D000E9FF05E0204600F08FF8204600F0BAF954
:1019E00000202077700719D515F0040016D0206864
:1019F0006FF00401016102212177806910F4407FBA
:101A000004D02046FFF7CEFF06E000BF204600F0DE
:101A100073F8204600F09EF900202077300717D594
:101A200015F0080014D020686FF00801016104214E
:101A30002177C069800703D02046FFF7B3FF05E098
:101A4000204600F059F8204600F084F90020207765
:101A5000F00619D515F0100016D020686FF01001AF
:101A6000016108212177C06910F4407F04D020462D
:101A7000FFF798FF06E000BF204600F03DF8204643
:101A800000F068F900202077F00718BF15F001007A
:101A900002D1300609D412E020686FF00101016123
:101AA000204600F0D1F9300609D515F0800006D0A7
:101AB00020686FF0800101612046FFF7ADFD7006E0
:101AC00009D515F0400006D020686FF04001016193
:101AD000204600F0D7F9B00658BF70BD15F02000C1
:101AE00008D021686FF0200220460A61BDE87040EE
:101AF000FFF794BD70BD00007047000090F83C30C7
:101B0000012B04BF022070474FEAB202032A3BD8E0
:101B10002DE9F043DFE802F0023E7AB403680026C4
:101B20001D6A1A6AC4F2010622F001021A621A46FC
:101B30005C6852F818CFB3428E68D1F800E025F007
:101B4000020545EA06050CD1CE68D1E9057824F4F2
:101B5000407425F00C0526F004063C43354344EA66
:101B600008042CF0730747EA0E075C609F614F681A
:101B700009695F631D629F6947F008079F619F695C
:101B800027F004079F61AAE00121002280F83C2091
:101B900008467047036800261D6A1A6AC4F20106E7
:101BA00022F010021A621A46D3F804C052F8184FF5
:101BB000B3428E68D1F800E025F0200545EA06150D
:101BC0000FD1CE68D1E905986FF0400725F0C00528
:101BD00007EA061635432CF4406748EA090647EA47
:101BE000860C24F4E64444EA0E27C3F804C09F613F
:101BF0004F6809699F631D629F6947F400679F6191
:101C00009F6927F480679F6168E000BF0368002632
:101C10001D6A1A6AC4F2010622F480721A621A4618
:101C2000D3F804C052F81CEFB3428E680C6825F458
:101C3000007545EA06250FD1CE68D1E90598360230
:101C400040F2FF4725F44065BE4335432CF440572E
:101C500048EA090647EA061C2EF073072743C3F833
:101C600004C0DF614F680969DF631D62DF6947F007
:101C70000807DF61DF6927F00407DF612FE000BF9D
:101C800003680027D3F820C01A6AC4F2010722F4BF
:101C900080521A621A465C6852F81C5FD1F800E064
:101CA0008E68BB4204D14F6924F4804444EA87140F
:101CB0002CF4005747EA063725F4E64646EA0E2696
:101CC0005C60DE614E6809691E641F62DF6947F46B
:101CD0000067DF61DF6927F48067DF61090213684D
:101CE000194311600021BDE8F043002280F83C2038
:101CF00008467047002804BF0120704710B504460D
:101D000090F83D0028B9002084F83C00204600F0FF
:101D10001FF8022084F83D002068211D01F014F80E
:101D2000012084F8460084F83E0084F83F0084F8DF
:101D3000400084F8410084F8420084F8430084F8AD
:101D4000440084F8450084F83D00002010BD0000E8
:101D5000704700007047000041B1082910D00429E5
:101D600014BF00F1410200F13F020BE090F83E2069
:101D7000012A1CBF01207047022280F83E2013E098
:101D800000F140021278012A1CBF01207047022294
:101D9000082907D0042914BF80F8412080F83F208B
:101DA00002E000BF80F84020006801F01F0101221E
:101DB000036A8A4023EA02010162036A4421C4F2F1
:101DC00001011A43A1F144039842026216D040F681
:101DD000FF31C4F2000188421ADCB0F1804F28D0F4
:101DE00040F20041C4F20001884222D040F60001D6
:101DF000C4F2000188421CD020E000BF0A6842F40F
:101E000000420A6040F6FF31C4F200018842E4DD7E
:101E100040F60041C4F2000188420AD044F20001B9
:101E2000C4F20101884204D00021C4F201018842B9
:101E300004D1816801F00701062903D0016841F04F
:101E4000010101600020704710B540F2A44402680F
:101E500040F2CC30C2F20004C2F2000021680368F4
:101E6000481C9A42206008BFB0F5FA7F00D010BD30
:101E70000020C4F202002021FFF704F800202060B7
:101E800010BD0000704700007047000010B5044608
:101E90000068416994F84120212A56D111F080014F
:101EA00053D000BF206850E8050F216820F0800063
:101EB00041E80502DAB1206850E8050F216820F0FA
:101EC000800041E8050292B1206850E8050F2168C2
:101ED00020F0800041E805024AB1206850E8050F73
:101EE000216820F0800041E80502002ADAD1A06BC9
:101EF000002818BFFEF7A4FC206850E8030F2168F3
:101F000020F0C00041E80302DAB1206850E8030F76
:101F1000216820F0C00041E8030292B1206850E837
:101F2000030F216820F0C00041E803024AB1206895
:101F300050E8030F216820F0C00041E80302002AA6
:101F4000DAD1202084F841002068406994F84210DA
:101F5000222940F0A78010F0400000F0A38000BFCD
:101F6000206850E8050F216820F0400041E8050294
:101F7000DAB1206850E8050F216820F0400041E800
:101F8000050292B1206850E8050F216820F040005A
:101F900041E805024AB1206850E8050F216820F0A9
:101FA000400041E80502002ADAD1E06B002818BFA2
:101FB000FEF746FC206850E8030F216820F490707B
:101FC00041E80302BAB3206850E8030F216820F407
:101FD000907041E8030272B3206850E8030F216853
:101FE00020F4907041E803022AB3206850E8030F00
:101FF000216820F4907041E80302002ADAD11AE047
:10200000206850E8050F216820F0010041E8050232
:10201000DAB1206850E8050F216820F0010041E89E
:10202000050292B1206850E8050F216820F00100F8
:1020300041E805024AB1206850E8050F216820F008
:10204000010041E80502002ADAD1206B012824D1E1
:10205000206850E8030F216820F0100041E80302D7
:10206000DAB1206850E8030F216820F0100041E841
:10207000030292B1206850E8030F216820F010009D
:1020800041E803024AB1206850E8030F216820F0BC
:10209000100041E80302002ADAD1202084F842002F
:1020A00000202063002010BD70470000B0B582B052
:1020B000044600680168C368426901F02F05202DBD
:1020C00003F0200506D12DB1204602B0BDE8B04096
:1020D00001F03AB85FEA017C1EBF02F0010E03F482
:1020E000907212EB0E0243D1226BCD0618D5012A55
:1020F00016D113F0100213D0002101910168019153
:10210000416801910199406940063BD4A08DE18D61
:10211000E28D002A18BF884240F0F28102B0B0BDC3
:102120000A0640F1E78013F0800200F0E38094F8A3
:1021300041102129F2D1A168B1F5805F03D1216955
:10214000002900F06382216A4A1C226209784160FA
:10215000E18C01390A04E184E0D1C16821F08001F9
:10216000C160C16841F04001C16002B0B0BD00BFB4
:10217000CA0718BF13F4807240F0D0804A0700F1FC
:10218000D380D8E0E06B016849688AB2002AC5D0E4
:10219000A38D9A42C2D2E185C069B0F5807F00F07C
:1021A0009D80206850E8030F216820F4807041E88A
:1021B0000302DAB1206850E8030F216820F4807030
:1021C00041E8030292B1206850E8030F216820F42F
:1021D000807041E803024AB1206850E8030F21688B
:1021E00020F4807041E80302002ADAD1206850E828
:1021F000050F216820F0010041E80502BAB320680C
:1022000050E8050F216820F0010041E8050272B393
:10221000206850E8050F216820F0010041E8050220
:102220002AB3206850E8050F216820F0010041E83A
:102230000502002ADAD11AE0206850E8050F21686B
:1022400020F0400041E80502DAB1206850E8050FAF
:10225000216820F0400041E8050292B1206850E872
:10226000050F216820F0400041E805024AB12068CE
:1022700050E8050F216820F0400041E80502002ADF
:10228000DAD1202084F8420000202063206850E842
:10229000030F216820F0100041E80302DAB1206842
:1022A00050E8030F216820F0100041E8030292B1CA
:1022B000206850E8030F216820F0100041E8030275
:1022C0004AB1206850E8030F216820F0100041E86F
:1022D0000302002ADAD1E06BFEF7B2FA0220606353
:1022E000A08DE18D401A81B2204602B0BDE8B04019
:1022F000FFF7CABD49067FF511AF13F040013FF467
:102300000DAFC16821F04001C1602021204684F852
:10231000411002B0BDE8B04000F07CBB626C42F0FE
:10232000010262644A0706D5BEF1000F03D0626C59
:1023300042F0020262648A0706D5BEF1000F03D0A4
:10234000626C42F004026264BCF1000F06D55EEAE2
:10235000050203D0626C42F008026264626C002ADB
:102360003FF4DCAE890604D51DB1204600F0ECFE3A
:1023700020684069616C00F0400001F008014018DD
:1023800000F0B680206850E8030F216820F49070B8
:1023900041E80302BAB3206850E8030F216820F433
:1023A000907041E8030272B3206850E8030F21687F
:1023B00020F4907041E803022AB3206850E8030F2C
:1023C000216820F4907041E80302002ADAD11AE073
:1023D000206850E8050F216820F0010041E805025F
:1023E000DAB1206850E8050F216820F0010041E8CB
:1023F000050292B1206850E8050F216820F0010025
:1024000041E805024AB1206850E8050F216820F034
:10241000010041E80502002ADAD1206B012824D10D
:10242000206850E8030F216820F0100041E8030203
:10243000DAB1206850E8030F216820F0100041E86D
:10244000030292B1206850E8030F216820F01000C9
:1024500041E803024AB1206850E8030F216820F0E8
:10246000100041E80302002ADAD1202084F842005B
:102470000020206320684069400640F1C180206848
:1024800050E8050F216820F0400041E80502DAB16C
:10249000206850E8050F216820F0400041E805025F
:1024A00092B1206850E8050F216820F0400041E813
:1024B00005024AB1206850E8050F216820F040006D
:1024C00041E80502002ADAD1E06B002800F098808C
:1024D00042F64961C0F600010165FEF7F9F90028EE
:1024E0003FF41CAEE06B016D02B0BDE8B0400847A0
:1024F0002046FFF7D9FD0020606402B0B0BD00BFE8
:10250000401A00BF216851E8031F226821F490712E
:1025100042E80313BBB3216851E8031F226821F48A
:10252000907142E8031373B3216851E8031F2268D6
:1025300021F4907142E803132BB3216851E8031F83
:10254000226821F4907142E80313002BDAD11AE0DB
:10255000216851E8051F226821F0010142E80513B6
:10256000DBB1216851E8051F226821F0010142E832
:10257000051393B1216851E8051F226821F001017C
:1025800042E805134BB1216851E8051F226821F08C
:10259000010142E80513002BDAD1202184F8421012
:1025A00000212163216851E8031F226821F01001F6
:1025B00042E80313DBB1216851E8031F226821F0D0
:1025C000100142E8031393B1216851E8031F226808
:1025D00021F0100142E803134BB1216851E8031FB9
:1025E000226821F0100142E80313002BDAD1022205
:1025F00081B22046626302B0BDE8B040FFF744BC40
:10260000204602B0BDE8B040FFF74EBD216A31F868
:10261000022B6FF35F224260216299E5002804BF1C
:102620000120704710B5044690F8410028B90020F9
:1026300084F84000204600F021F8242084F841006E
:102640002068C16821F40051C160204600F0FCFD03
:102650002068016921F490410161416921F02A015A
:102660004161C16841F40051C160002020216064D3
:1026700084F8411084F84210606310BD70B586B0D4
:102680000446016844F20040C4F20000814201D0D7
:1026900006B070BD002643F630010196C4F2020177
:1026A0000A6900F5DE3042F400320A610A6902F478
:1026B00000320192019A01960A6842F001020A6012
:1026C000096801F00101019101990C210191022198
:1026D000CDE90216032104910721059101A9FEF716
:1026E00001FB40F26C3546F28800C2F20005C4F2EC
:1026F00002004FF000614FF4806285E843002846F5
:10270000C5E90362C5E90566C5E907666E62FEF7BD
:10271000D1F9002818BFFEF78FF8262000210022EB
:10272000E563AC63FEF73EFC2620FEF729FC06B00D
:1027300070BD000070B582B0044690F842002028B9
:102740000AD113460A4600294FF0010018BF002B9A
:1027500006D102B070BD00BF022002B070BD00BF44
:10276000002622202663A262A385666484F84200C4
:10277000E06B42F6D17C43F231152168C0F6000CC3
:10278000C0F60005C0E90FC542F65565C0F6000564
:102790000431C0E91356FEF73FFA0196206801683C
:1027A0000191406801900198206928B3206850E8A1
:1027B000030F216840F4807041E80302E2B1206811
:1027C00050E8030F216840F4807041E803029AB199
:1027D000206850E8030F216840F4807041E803024C
:1027E00052B1206850E8030F216840F4807041E83E
:1027F0000302002ADAD100BF206850E8050F2168E3
:1028000040F0010041E80502BAB3206850E8050F26
:10281000216840F0010041E8050272B3206850E8E9
:10282000050F216840F0010041E805022AB3206845
:1028300050E8050F216840F0010041E80502002A38
:10284000DAD11AE0206850E8050F216840F0400016
:1028500041E80502DAB1206850E8050F216840F030
:10286000400041E8050292B1206850E8050F216858
:1028700040F0400041E805024AB1206850E8050FE9
:10288000216840F0400041E80502002ADAD100202A
:1028900002B070BD70470000704700002DE9F041A4
:1028A000044690F8410020281CBF0220BDE8F081BA
:1028B0000D4600294FF0010000F0AA801646002ABC
:1028C00008BFBDE8F081002060642120984684F8AC
:1028D0004100FEF7E5FAA684E684A1680646B1F554
:1028E000805F02D12069002862D02F460025E08C4D
:1028F000002861D018F1010018D0B8F1000F37D1CD
:10290000216808E017F8010B4860E08C0138E0848A
:10291000E08C002851D00868000673D5002FF1D153
:1029200035F8020B00276FF35F20EDE7216802E026
:102930000868000609D40868000606D4086800067E
:102940005CBF08685FEA0060F2D51FB117F8010BA1
:1029500005E000BF35F8020B00276FF35F204860E9
:10296000E08C0138E084E08C0028E4D125E000BF51
:10297000216800BF0868000608D4FEF791FA801BA2
:10298000404541D82168C868F4E700BF17B117F87F
:10299000010B04E035F8020B00276FF35F2048605D
:1029A000E08C0138E084E08C0028E3D105E000BF32
:1029B0000027E08C00289DD12168086840061FD4BC
:1029C000B8F1000F1ED018F101000FD108684006C1
:1029D00016D40868400613D40868400610D4086866
:1029E00040064FF00000F1D50FE000BFFEF758FAA7
:1029F000801B404508D82068C16800684006F5D5AE
:102A0000002002E0FEF74CFA0320202184F8411058
:102A1000BDE8F08170470000FEE7000080B582B09D
:102A20000020019043F63000C4F202000168002249
:102A300041F4001101600068002100F400100190D1
:102A400001981020FEF7AEFA102002B0BDE88040D9
:102A5000FEF796BA70B586B0002543F630000595AE
:102A60000095C4F202000168002441F001010160F8
:102A70000068C4F2020400F00100009000982046B3
:102A8000202100222026FEF705FA0120CDE90205CB
:102A9000049001A920460196FEF724F906B070BD06
:102AA00080B586B040F2CC3000220021C2F2000096
:102AB000C4F20102632340F2E73C0591CDE9031122
:102AC000CDE90011C0E90023C0E9021CC0E90411EE
:102AD0008161FEF7EFFD002818BFFDF7ADFE4FF452
:102AE0008050029040F2CC30C2F2000002A9FEF702
:102AF00089FE002818BFFDF79FFE40F2CC30C2F2DD
:102B000000006946FEF78CFD002818BFFDF794FE13
:102B100006B080BD10B594B040F2144043F67F0477
:102B20000021C2F200004FF080421823C0F20104DD
:102B30000E91CDE90C110991CDE90711CDE90511EF
:102B4000CDE90311CDE90111C0E90023C0E9021468
:102B500001618161FEF7AEFD002818BFFDF76CFE34
:102B60004FF480500B9040F21440C2F200000BA9C9
:102B7000FEF748FE002818BFFDF75EFE40F2144045
:102B8000C2F20000FFF7B6F8002818BFFDF754FEA8
:102B900040F214400024C2F2000008A9CDE9084424
:102BA000FEF73EFD002818BFFDF746FE6020CDE988
:102BB000010440F21440C2F2000001A90022039473
:102BC0000594FEF79BFF002818BFFDF735FE40F285
:102BD0001444C2F2000401A920460422FEF78EFF2D
:102BE000002818BFFDF728FE2068B0F1804F01D003
:102BF00014B010BD002043F630010F90C4F2020162
:102C00000A6842F001020A60096801F001010F91AF
:102C10000F9903210F910221CDE91010129001208C
:102C200013900020C4F202000FA9FEF75BF814B065
:102C300010BD000080B540F25C4044F20041C2F299
:102C40000000C4F2000100234FF00C0C4FF4E132FD
:102C500080E80E00C0E90333C0E905C3C361FFF794
:102C6000DDFC002808BF80BDBDE88040FDF7E4BD65
:102C7000FEE70000FEE7000070470000704700001C
:102C8000FEF714B9B0B592B0002443F640000B949F
:102C9000CDE90944CDE907440594CDE90344CDE9E4
:102CA00001440094C4F202000168022541F0805101
:102CB0000160006800F080500090009847F200002A
:102CC0000094C4F20000016841F4404101600068D2
:102CD00000F44040009000980120099010200A90D4
:102CE00008200E906420CDE90F050420119006A85D
:102CF0000695CDE90C54FEF7A1FA18B172B600BFE3
:102D0000FEE700BF0F20CDE901054FF48050CDE96B
:102D1000040401A803210394FEF780F910B172B6F0
:102D2000FEE700BF12B0B0BD4EF68850CEF20000F4
:102D3000016841F4700101607047000040F2CC303E
:102D4000C2F20000FEF730BE10B540F2FF7E03680D
:102D5000C4F2000E40F2000C7045C4F2010C1DDDFF
:102D600040F60002C4F20002904220D060451ED01E
:102D700040F60042C4F20002904218D04FF6FF72B3
:102D8000C4F2000290421CDC704525DCB0F1804F9B
:102D90003AD040F20042C4F2000233E0B0F1804F7A
:102DA00005D040F20042C4F200029042E6D14A68E7
:102DB00023F0700313434FF6FF72C4F200029042F7
:102DC000E2DD44F2FF32C4F20102904210DC6045C1
:102DD0001AD044F2000213E040F60002C4F20002EE
:102DE000904211D040F60042C4F200020AE000BF57
:102DF00044F60002C4F20102904205D044F20042BF
:102E0000C4F20102904203D1CA6823F44073134311
:102E100023F080024B69D1F800E08C681A436045CA
:102E20000260C462C0F828E002D10969CCF8301011
:102E3000012141610169C90708BF10BD016921F085
:102E40000101016110BD0000806B0021C185C184BA
:102E5000FFF72AB9806B01684A6990F84130212B4D
:102E60002DD112F080022AD00021C184016851E8DE
:102E7000031F026821F0C00142E80313DBB10168BF
:102E800051E8031F026821F0C00142E8031393B127
:102E9000016851E8031F026821F0C00142E80313F2
:102EA0004BB1016851E8031F026821F0C00142E8FC
:102EB0000313002BDAD1202180F841100168496901
:102EC00090F84220222A40F07D8011F0400179D014
:102ED0000021C185016851E8031F026821F4907147
:102EE00042E80313BBB3016851E8031F026821F4F1
:102EF000907142E8031373B3016851E8031F02683D
:102F000021F4907142E803132BB3016851E8031FC9
:102F1000026821F4907142E80313002BDAD11AE021
:102F2000016851E8051F026821F0010142E805131C
:102F3000DBB1016851E8051F026821F0010142E898
:102F4000051393B1016851E8051F026821F00101E2
:102F500042E805134BB1016851E8051F026821F0F2
:102F6000010142E80513002BDAD1016B012924D1BC
:102F7000016851E8031F026821F0100142E80313C1
:102F8000DBB1016851E8031F026821F0100142E83B
:102F9000031393B1016851E8031F026821F0100187
:102FA00042E803134BB1016851E8031F026821F0A6
:102FB000100142E80313002BDAD1202180F84210DF
:102FC00000210163416C41F010014164FFF76CB8CE
:102FD0000168806B0968C90500F19F800021C185E7
:102FE000016851E8031F026821F4807142E803136D
:102FF000E3B1016851E8031F026821F4807142E8DF
:1030000003139BB1016851E8031F026821F480712A
:1030100042E8031353B1016851E8031F026821F429
:10302000807142E80313002BDAD100BF016851E838
:10303000051F026821F0010142E80513BBB30168D6
:1030400051E8051F026821F0010142E8051373B33E
:10305000016851E8051F026821F0010142E80513EB
:103060002BB3016851E8051F026821F0010142E815
:103070000513002BDAD11AE0016851E8051F026838
:1030800021F0400142E80513DBB1016851E8051F5A
:10309000026821F0400142E8051393B1016851E84C
:1030A000051F026821F0400142E805134BB1016899
:1030B00051E8051F026821F0400142E80513002B8A
:1030C000DAD1202180F84210016B012925D100BFFF
:1030D000016851E8031F026821F0100142E8031360
:1030E000DBB1016851E8031F026821F0100142E8DA
:1030F000031393B1016851E8031F026821F0100126
:1031000042E803134BB1016851E8031F026821F044
:10311000100142E80313002BDAD100214163016B57
:10312000012918BFFFF7B6BB818DFEF7ADBE0000C9
:10313000806B01214163016B012918BFFFF7ACBB14
:10314000818D4908FEF7A0BE81B090F84210222977
:1031500021D183680246B3F5805F09D152F8281F58
:1031600052F8183C002B63D003685B680AE000BF8C
:1031700052F8281F13B90369002BF5D003685B6868
:1031800003F07F030B70116801311160C18D0139AB
:103190000A04C18502D001B0704700BF0168CA6847
:1031A00022F02002CA60CA6822F48072CA604A69AA
:1031B00022F001024A61202180F84210002141637F
:1031C000026B012A3CD10163016851E8031F0268C8
:1031D00021F0100142E80313DBB1016851E8031F3D
:1031E000026821F0100142E8031393B1016851E82D
:1031F000031F026821F0100142E803134BB101687C
:1032000051E8031F026821F0100142E80313002B6C
:10321000DAD101680A68D20606D5002200920A684F
:103220000092496800910099818D01B0FEF72CBE93
:10323000026852686FF35F2221F8022B8162A5E7D2
:1032400001B0FFF727BB000010B504460068D4E9C1
:1032500002C22369016921F440511143016162698D
:1032600043EA0C01E3691143C268194349F20C6354
:103270009A431143C1604169A26921F4407141F24E
:103280000043114340F48062C4F201039A42416159
:1032900002D1FDF789FF01E0FDF772FFE169636884
:1032A0001922B1F5004FA0FB020123D15A00DB0F18
:1032B000FDF706F848F21F51C5F2EB11A0FB012300
:1032C0005A094FF69C73C0F6FF7303F1805302FB5B
:1032D0000300322303EBC000A0FB01014FF4F870A0
:1032E00000EA111000EB0210C1F3421108442168FA
:1032F000886010BD9A009B0FFCF7E2FF48F21F5157
:10330000C5F2EB11A0FB01235A094FF69C73C0F6DE
:10331000FF7302FB0300322303EB0010A0FB01014B
:10332000F02000EA511000EB0210C1F343110844F1
:103330002168886010BD0000B0B582B040F25C44E6
:10334000C2F2000444F200452046C4F20005FEF734
:10335000ADFE2068A84202D12868C00602D402B09F
:10336000B0BD00BF002001902868019068680190FE
:10337000019840F25C40C2F2000002B0BDE8B040EB
:10338000AFF30080F0B581B040F25C44C2F20004BB
:103390002046FEF77BFD40F26C30C2F20000006870
:1033A00040F278054068C2F20005C7432846FDF7A1
:1033B00070F840F2000140F27716C2F20001C2F24A
:1033C000000608600CA130462A46FCF7F1FF3046A3
:1033D000FDF76CF882B220463146FF23FFF75EFA14
:1033E000F9B22846FDF781F820462946FF2201B0B0
:1033F000BDE8F040FFF79EB95265636569766520C8
:10340000646174613A20257370776D313A203230EF
:103410003030202D2031303030300A0A00000000DA
:10342000FEE7000040F20000C2F20000016842F234
:103430001072914204DCB1F5FA6F03DA4FF4FA62CC
:103440001146026040F21442C2F200021268516357
:10345000416801209163FDF731BC0000FDF734FDA8
:10346000FFF710FCFFF7F6FAFFF7D8FAFFF718FBA3
:10347000FFF750FBFFF7DEFB40F25C40C2F20000BA
:103480000168CA6842F01002CA6040F27801C2F2D4
:103490000001FF22FFF74EF940F2CC30C2F20000EB
:1034A000FEF76EF90020C4F2020020210022FDF791
:1034B000F1FC0120FDF702FC40F21444C2F20004CA
:1034C00020460021FEF748FC20460421FEF744FC7C
:1034D0000120FDF7F3FB40F20000C2F2000000689B
:1034E0002168486340F20400C2F20000006888636B
:1034F0000120FDF7E3FB00BFFFF794FFFCE70000AE
:1035000010B500290AD00878002807D0054878446B
:10351000FDF742F9002801D0002010BD0248784490
:1035200010BD00007A00000072000000F1EE100AE9
:103530004FF6FF71C0F2C03120EA010040F0407048
:10354000E1EE100A704700000000000000000102D8
:103550000304060708090000000001020304000636
:103560001016000610160000983600080000002013
:1035700018000000FC010008B03600081800002008
:10358000980A00001C02000810010000430000001F
:10359000F8FFFFFF00404040404040404040414174
:1035A0004141414040404040404040404040404018
:1035B00040404040400502020202020202020202B2
:1035C00002020202022020202020202020202002AF
:1035D000020202020202909090909090101010103F
:1035E00010101010101010101010101010101010DB
:1035F000020202020202888888888888080808086F
:10360000080808080808080808080808080808083A
:103610000202020240000000000000000000000062
:10362000000000000000000000000000000000009A
:10363000000000000000000000000000000000008A
:10364000000000000000000000000000000000007A
:10365000000000000000000000000000000000006A
:10366000000000000000000000000000000000005A
:10367000000000000000000000000000000000004A
:10368000000000000000000000000000000000003A
:103690000000000000000000D007000060090000EA
:1036A00001000000100000000024F40000000000F1
:040000050800019955
:00000001FF
