:020000040800F2
:1000000010070020650200089D1700089D150008D4
:100010009917000811040008711900080000000079
:10002000000000000000000000000000A51700080C
:100030001504000800000000A1170008A917000817
:100040007F0200087F0200087F0200087F0200088C
:100050007F0200087F0200087F0200087F0200087C
:100060007F0200087F0200087F0200087F0200086C
:100070007F0200087F0200087F0200087F0200085C
:100080007F0200087F0200087F02000800000000D5
:100090000000000000000000000000007F020008D7
:1000A0007F020008651800087F0200087F02000830
:1000B0007F0200087F0200087F0200087F0200081C
:1000C0007F0200087F0200087F0200087F0200080C
:1000D0007F0200087F0200087F0200080000000085
:1000E0007F0200087F0200087F0200080000000075
:1000F0000000000000000000000000007F02000877
:10010000000000007F0200087F0200087F02000854
:1001100000000000000000000000000000000000DF
:100120007F0200087F0200087F0200087F020008AB
:100130007F02000800000000000000000000000036
:100140000000000000000000000000007F02000826
:100150007F0200087F0200087F0200087F0200087B
:100160007F0200087F02000800000000000000007D
:10017000000000000000000000000000000000007F
:10018000000000007F0200080000000000000000E6
:100190007F0200087F02000800F002F800F052F829
:1001A00014A696E8000CB244B344DA4501D100F03D
:1001B00049F8BAE80F000FA696E83000A5EB040551
:1001C00004EB0607AAEB0704A7F101074FEA151590
:1001D0004FEA3414A4F10104AC4201D300F032F828
:1001E00013F0010F18BFFB1A43F0010300F001F8F0
:1001F000DBE718472418000044180000103A24BF19
:1002000078C878C1FAD8520724BF30C830C144BF7B
:1002100004680C6070470000704700000023002451
:1002200000250026103A28BF78C1FBD8520728BF06
:1002300030C148BF0B6070471FB501F0D8FB1FBD30
:1002400010B510BD00F0A9F81146FFF7F5FF01F059
:10025000A3FB00F0C7F803B4FFF7F2FF03BC00F004
:10026000CFF800000948804709480047FEE7FEE74D
:10027000FEE7FEE7FEE7FEE7FEE7FEE7FEE7FEE756
:1002800004480549054A064B70470000511800080C
:100290009901000810010020100700201003002021
:1002A0001003002053EA020C00F069802DE9F04BA6
:1002B0004FF00006002B1FBFB3FA83F503FA05F4D5
:1002C00024FA05F65E4012BF1643B2FA82F502FA2E
:1002D00005F4C5F120051EBF22FA05FC44EA0C0412
:1002E000203556EA044C4FEA144418BF641C4FF002
:1002F00000084FF00009904271EB030C39D300293C
:1003000019BFB1FA81F701FA07F6B0FA80F700FADF
:1003100007F6C7F120071EBF20FA07FC46EA0C06C5
:100320002037B6FBF4FCA7EB0507103F07F01F0BC7
:10033000CBF120062CFA06F60CFA0BFB44BFB346B1
:100340000026202FA4BF5E464FF0000B5BEA060C90
:1003500008BF4FF0010B19EB0B0948EB0608ABFB8C
:10036000027C06FB02CC0BFB03CCC01B71EB0C0127
:10037000C1E70B46024641464846BDE8F08B13B53F
:10038000084318BF4FF0FF300146AFF30080BDE8CF
:100390001C407047704770477047754600F02CF856
:1003A000AE4605006946534620F00700854618B062
:1003B00020B5FFF765FFBDE820404FF000064FF085
:1003C00000074FF000084FF0000BAC46ACE8C00946
:1003D000ACE8C009ACE8C009ACE8C00921F00701ED
:1003E0008D46704710B50446AFF300802046BDE847
:1003F0001040FFF730BF0000004870471800002091
:1004000001491820ABBEFEE726000200704700003D
:10041000FEE700007047000072B600BFFEE7000074
:10042000B0B5044600F0EEF8054640F20C00C2F20A
:1004300000000078611C18BF044400BF00F0E2F81F
:10044000401BA042FAD3B0BD2DE9F04F82B000F1BD
:100450003E4707F1FF77860546EA972741F20006F7
:10046000C4F20206072243F6004EB04208BF04223F
:10047000C4F2010E042F38BF3A46002600274FF081
:100480000008009209E000BF08F101080237B8F146
:10049000100F06F1040600F0A3800D68012202FA95
:1004A00008F415EA0409EFD0D1F804B003220BF0E8
:1004B000030CACF10105BA40012D6FEA020A0FD816
:1004C0008268CD6802EA0A02BD402A43826042681F
:1004D000A243CBF3001404FA08F42243426005E07F
:1004E000BCF1030F02D14FF0030C1EE0C2688C6810
:1004F00002EA0A02BC402243BCF1020FC26014D1DE
:100500006FF0030202EA58020244D2F820C006F05B
:100510001C040F230D69A3402CEA0303A5402B43C1
:100520001362D1F804B00BF0030C02680CFA07F365
:1005300002EA0A021A431BF4403F0260A4D00022E0
:1005400043F644030192C4F202031A684FF6084CC2
:1005500042F480421A601A68CFF6FF7C02F48042AF
:100560000192019A28F00302724452F80C3006F00E
:100570000C050F24AC40A343009C04FA05F52B4363
:1005800042F80C30DEF808204B6842EA090543F6D1
:100590000C4CDC0258BF22EA0905CEF80850C4F220
:1005A000010CDCF800209C0242EA090558BF22EA4F
:1005B0000905CCF80050DEF804209C0342EA090546
:1005C00058BF22EA0905CEF80450DEF80020DB030C
:1005D00042EA090558BF22EA0905CEF8005053E760
:1005E00002B0BDE8F08F0000426902EA01039143C6
:1005F00041EA034181617047002A08BF0904816113
:100600007047000040F20C10C2F200000068704712
:1006100040F20C0040F20C11C2F20000C2F20001E4
:1006200000780A68104408607047000080B543F6FF
:100630000040C4F20200016841F4007101600168E9
:1006400041F480610160016841F480710160032020
:1006500000F086F80F2000F005F800F027F80020E1
:1006600080BD000070B540F20C06C2F2000640F2F8
:1006700014013278C2F200014FF47A730968B3FBB7
:10068000F2F20446B1FBF2F1084600F039FB0F2C00
:100690004FF0010508D838B94FF0FF30214600224D
:1006A000002500F031F87460284670BD82B000204B
:1006B00043F640010190C4F202014A6842F48042CC
:1006C0004A604A6802F480420192019A00900868E8
:1006D00040F080500860086800F08050009000985A
:1006E00002B07047002848BF704700F01F01012288
:1006F00002FA01F11C2202EAD0004EF20012CEF200
:10070000000281507047000010B54EF60C5CCEF22E
:10071000000CDCF80030C3F3022E8EF00704042C2A
:1007200028BF0424BEF103034FF0FF3E0EFA04F489
:1007300038BF0023A14399400EFA03F39A431143B3
:1007400000F00F0200F160430901043A03F564432D
:100750006244002848BF02F10C03197010BD00006C
:100760004EF60C51CEF200010A684FF6FF031A4014
:1007700060F30A2242F0806040F0FD70086070472C
:10078000002804BF012070472DE9F04143F6080816
:10079000C4F202080446D8F8F8030D4600F007003A
:1007A000884207D288F8F853D8F8F80300F0070019
:1007B000A84277D12068810717D5410705D5D8F819
:1007C000001041F4E051C8F80010010705D5D8F831
:1007D000001041F46041C8F80010D8F80010A26879
:1007E00021F0F0011143C8F80010C00740D1D8F83B
:1007F000F80300F00700A84207D988F8F853D8F8A2
:10080000F80300F00700A8424CD12068410707D543
:10081000D8F80010E26821F4E0511143C8F8001044
:10082000000708D5D8F80000216920F4604040EAAC
:10083000C100C8F8000000F055F8D8F8001041F6E3
:100840000822C1F30311C0F60002515C40F2140209
:1008500020FA01F140F21000C2F200000068C2F27A
:1008600000021160FFF7FEFE0020BDE8F08100BF2E
:100870006068811E022907D258F8081C89015CBFF4
:100880000120BDE8F08111E0012807D158F8081CCB
:1008900089035CBF0120BDE8F08107E058F8081C1F
:1008A000890703D40120BDE8F08100BFD8F800100B
:1008B00021F003010843C8F80000FFF7A3FE064635
:1008C00041F28837D8F80000616800F00C00B0EB06
:1008D000810F8CD0FFF796FE801BB842F2D903201F
:1008E000BDE8F08110B543F60404C4F20204606868
:1008F00000F00C0142F200400829C0F2F40007D0D9
:10090000042918BF10BD41F20020C0F27A0010BDCA
:10091000216801F03F02216823684902C3F388116E
:1009200006D4A1FB00010023FFF7BCFC07E000BFD9
:1009300041F20020C0F27A004843B0FBF2F0216897
:100940000222C1F3014102EB4101B0FBF1F010BD05
:10095000002804BF012070472DE9F04182B0044611
:10096000007843F60006C007C4F202060CD0B06857
:1009700000F00C00042840F081803068800303D52B
:100980006068002800F06A81207880071BD5B06875
:1009900010F00C0F09D0B06800F00C00082840F0EF
:1009A00087807068400200F183803068800703D53B
:1009B000E068012840F052813068216920F0F80099
:1009C00040EAC10030602078000713D42078400747
:1009D0002AD4A569002D00F03C81B06800F00C001D
:1009E000082840F0A180012D40F01081012002B0C4
:1009F000BDE8F0816069002840F20000C4F24720A1
:100A000000F07E800121C0F8801EFFF7FBFD054647
:100A1000706F8007DAD4FFF7F5FD401B0228F7D985
:100A2000032002B0BDE8F081306C5FEAC0080AD450
:100A300000200190306C40F080503064306C00F049
:100A400080500190019847F20007C4F2000738680F
:100A5000C00547D4386840F480703860FFF7D2FD95
:100A6000054600BF3868C0053CD4FFF7CBFD401BEE
:100A70000228F7D9032002B0BDE8F081B06800F089
:100A80000C00082803D1706840023FF576AF60681B
:100A9000B0F5803F07D0B0F5A02F40F09B803068C4
:100AA00040F480203060306840F4803030609BE05B
:100AB000E06800285CD00020C4F2472001210160DA
:100AC000FFF7A0FD054600BF306880073FF574AF13
:100AD000FFF798FD401B0228F6D9032002B0BDE8BD
:100AE000F08100BFA068012805D0052854D1306FDF
:100AF00040F004003067306F40F00100306755E08F
:100B00000021C0F8801EFFF77DFD0546706F80074D
:100B10007FF55CAFFFF776FD401B0228F6D9032076
:100B200002B0BDE8F08100BF0027C4F247270020D3
:100B30003866FFF767FD022D05460DD1306880014C
:100B400040F19080FFF75EFD401B02284FF003004C
:100B5000F4D902B0BDE8F0813068800179D5FFF7A3
:100B600051FD401B02284FF00300F5D9F1E700BF0B
:100B70000020C4F2472000210160FFF743FD054635
:100B8000306880077FF51FAFFFF73CFD401B022850
:100B90004FF00300F4D9DCE7316F002821F00101A8
:100BA0003167316F21F0040131677DD0FFF72AFDF5
:100BB000054641F2883700BF306F800700F186801C
:100BC000FFF720FD401BB842F6D9032002B0BDE874
:100BD000F08100BF3168002821F480313160316834
:100BE00021F4802131607BD0FFF70CFD054600BF6A
:100BF000306880033FF5C8AEFFF704FD401B642852
:100C0000F6D9032002B0BDE8F08100BF7068E16949
:100C100000F480028A4221D1216A00F03F028A4218
:100C20001CD147F6C071626A0140B1EB821F15D139
:100C3000A16A4FF6FF73C903994300F44032A1F54E
:100C400080318A420AD1E16A00F07060B0EB016F36
:100C500004D1002002B0BDE8F08100BF012002B045
:100C6000BDE8F08104F11C052FCD084340EA821055
:100C7000D9034FF6FF729143A1F5803140EA056038
:100C80000843706001203866FFF7BCFC044600BFD3
:100C900030688001DDD4FFF7B5FC001B02284FF05F
:100CA0000300F5D955E700BFFFF7ACFC054641F25C
:100CB000883700BF306F800708D5FFF7A3FC401BC3
:100CC000B8424FF00300F5D943E700BFB8F1000F79
:100CD0003FF57FAE306C20F08050306479E600BF85
:100CE000FFF790FC054600BF306880037FF54CAEEF
:100CF000FFF788FC401B64284FF00300F4D928E775
:100D0000411E0020B0EB116F1CBF012070474EF256
:100D10001002CEF2000251604EF62351CEF20001D5
:100D2000F0230B700721906011607047704700003E
:100D30007047000090F83C20012A4FF0020241D099
:100D400010B580F83D200268D2F804E0D2F808C05F
:100D50000C682EF07003234340F6FF34C4F2000405
:100D6000A242536010DCB2F1804F1ED040F200432B
:100D7000C4F200039A4218D040F60003C4F2000304
:100D80009A4212D016E000BF40F60043C4F20003BE
:100D90009A420AD044F20003C4F201039A4204D0FA
:100DA0000023C4F201039A4204D149682CF0800365
:100DB000194391600121002280F83D1080F83C2009
:100DC000BDE8104010467047002804BF012070475E
:100DD00010B5044690F83D0028B9002084F83C0086
:100DE000204600F01FF8022084F83D002068211DF5
:100DF00000F03EFD012084F8460084F83E0084F8AF
:100E00003F0084F8400084F8410084F8420084F8F0
:100E1000430084F8440084F8450084F83D00002035
:100E200010BD000080B582B00068B0F1804F1FD0C7
:100E30000021C4F20101884229D10020019043F62B
:100E40004000C4F202004168002241F0010141600B
:100E50004068002100F00100019001981920FFF77F
:100E600053FC192002B0BDE88040FFF73BBC00BF37
:100E70000020009043F64000C4F20200016841F0F7
:100E800001010160006800F001000090009802B0CC
:100E900080BD000090F83D1001291CBF0120704763
:100EA000022180F83D10006840F6FF32C168C4F2AC
:100EB0000002904241F00101C1600FDCB0F1804FAF
:100EC0001DD040F20041C4F20001884217D040F624
:100ED0000001C4F20001884211D017E040F6004141
:100EE000C4F2000188420AD044F20001C4F20101B8
:100EF000884204D00021C4F20101884206D18168F1
:100F000001F00701062904BF00207047016841F085
:100F1000010101600020704790F83C20012A4FF049
:100F2000020200F0C58080B580F83D20D0F800C0F6
:100F30004FF67772DCF8083023EA0202CCF808207A
:100F40000B684F2B28DC1F2B44DD202B45D0302B8A
:100F500043D0402B40F0AE80D1F804E0C968DCF803
:100F60002030DCF8202022F00102CCF82020DCF830
:100F7000182022F0F00242EA011123F00A0242EAAC
:100F80000E02CCF81810CCF82020DCF8081041F044
:100F9000470121F0300180E06F2B27DDB3F5005FC2
:100FA00048D0B3F5805F7AD0702B40F08380D1E9D0
:100FB00001E3C968DCF8082043EA0E0322F47F420B
:100FC00043EA01211143CCF80810DCF8081041F085
:100FD000770162E00BB1102B6CD1DCF8081021F026
:100FE0007001194341F0070157E000BF502B35D085
:100FF000602B5FD1D1F804E0C968DCF82030DCF860
:10100000202022F01002CCF82020DCF8182022F456
:10101000704242EA013123F0A00242EA0E12CCF8FB
:101020001810CCF82020DCF8081041F0670121F0FE
:10103000100132E0D1E901E3C968DCF8082043EA95
:101040000E0322F47F4243EA01211143CCF8081039
:10105000DCF8081041F480411FE000BFD1F804E043
:10106000C968DCF82030DCF8202022F00102CCF83E
:101070002020DCF8182022F0F00242EA011123F0CF
:101080000A0242EA0E02CCF81810CCF82020DCF854
:10109000081041F0570121F02001CCF8081000227F
:1010A000012180F83D10002180F83C10BDE880400F
:1010B000104670470122F3E77047000070B5044600
:1010C0000068C5680669B10716D515F0020113D08E
:1010D0006FF002010161012121778069800703D04F
:1010E0002046FFF7E9FF05E0204600F08FF8204694
:1010F00000F0BAF900202077700719D515F0040028
:1011000016D020686FF00401016102212177806907
:1011100010F4407F04D02046FFF7CEFF06E000BF6A
:10112000204600F073F8204600F09EF9002020775A
:10113000300717D515F0080014D020686FF00801AB
:10114000016104212177C069800703D02046FFF7A1
:10115000B3FF05E0204600F059F8204600F084F97E
:1011600000202077F00619D515F0100016D0206861
:101170006FF01001016108212177C06910F4407FF0
:1011800004D02046FFF798FF06E000BF204600F09D
:101190003DF8204600F068F900202077F00718BFDE
:1011A00015F0010002D1300609D412E020686FF07A
:1011B00001010161204600F0D1F9300609D515F092
:1011C000800006D020686FF0800101612046FFF7A3
:1011D000ADFD700609D515F0400006D020686FF00F
:1011E00040010161204600F0D7F9B00658BF70BD3C
:1011F00015F0200008D021686FF0200220460A6117
:10120000BDE87040FFF794BD70BD0000704700005E
:1012100090F83C30012B04BF022070474FEAB20225
:10122000032A3BD82DE9F043DFE802F0023E7AB40E
:10123000036800261D6A1A6AC4F2010622F0010240
:101240001A621A465C6852F818CFB3428E68D1F819
:1012500000E025F0020545EA06050CD1CE68D1E98B
:10126000057824F4407425F00C0526F004063C4370
:10127000354344EA08042CF0730747EA0E075C6024
:101280009F614F6809695F631D629F6947F00807A6
:101290009F619F6927F004079F61AAE00121002256
:1012A00080F83C2008467047036800261D6A1A6AC9
:1012B000C4F2010622F010021A621A46D3F804C0E2
:1012C00052F8184FB3428E68D1F800E025F020059F
:1012D00045EA06150FD1CE68D1E905986FF04007B1
:1012E00025F0C00507EA061635432CF4406748EAA6
:1012F000090647EA860C24F4E64444EA0E27C3F8BC
:1013000004C09F614F6809699F631D629F6947F42C
:1013100000679F619F6927F480679F6168E000BF55
:10132000036800261D6A1A6AC4F2010622F480725C
:101330001A621A46D3F804C052F81CEFB3428E6802
:101340000C6825F4007545EA06250FD1CE68D1E971
:101350000598360240F2FF4725F44065BE43354309
:101360002CF4405748EA090647EA061C2EF073079A
:101370002743C3F804C0DF614F680969DF631D625A
:10138000DF6947F00807DF61DF6927F00407DF61E5
:101390002FE000BF03680027D3F820C01A6AC4F208
:1013A000010722F480521A621A465C6852F81C5FE8
:1013B000D1F800E08E68BB4204D14F6924F4804428
:1013C00044EA87142CF4005747EA063725F4E6462A
:1013D00046EA0E265C60DE614E6809691E641F6283
:1013E000DF6947F40067DF61DF6927F48067DF6149
:1013F00009021368194311600021BDE8F04300227F
:1014000080F83C2008467047002804BF0120704740
:1014100010B5044690F83D0028B9002084F83C003F
:10142000204600F01FF8022084F83D002068211DAE
:1014300000F01EFA012084F8460084F83E0084F88B
:101440003F0084F8400084F8410084F8420084F8AA
:10145000430084F8440084F8450084F83D000020EF
:1014600010BD0000704700007047000041B108291E
:1014700010D0042914BF00F1410200F13F020BE03B
:1014800090F83E20012A1CBF01207047022280F8FC
:101490003E2013E000F140021278012A1CBF012017
:1014A00070470222082907D0042914BF80F8412080
:1014B00080F83F2002E000BF80F84020006801F083
:1014C0001F010122036A8A4023EA02010162036AC2
:1014D0004421C4F201011A43A1F14403984202627B
:1014E00016D040F6FF31C4F2000188421ADCB0F198
:1014F000804F28D040F20041C4F20001884222D03F
:1015000040F60001C4F2000188421CD020E000BF78
:101510000A6842F400420A6040F6FF31C4F200015A
:101520008842E4DD40F60041C4F2000188420AD05E
:1015300044F20001C4F20101884204D00021C4F247
:101540000101884204D1816801F00701062903D016
:10155000016841F0010101600020704710B540F2C0
:101560000814026840F27800C2F20004C2F20000DF
:1015700021680368481C9A42206008BFB0F5FA7FD2
:1015800000D010BD0020C4F202002021FFF72CF88B
:101590000020206010BD000070470000FEE7000042
:1015A00070B586B0002543F6300005950095C4F26D
:1015B00002000168002441F0010101600068C4F2EA
:1015C000020400F001000090009820462021002233
:1015D0002026FFF711F80120CDE90205049001A9AA
:1015E00020460196FEF730FF06B070BD80B586B08C
:1015F00040F2780000220021C2F20000C4F2010291
:10160000632340F2E73C0591CDE90311CDE90011D8
:10161000C0E90023C0E9021CC0E904118161FFF7A1
:10162000D3FB002818BFFEF7F7FE4FF4805002905E
:1016300040F27800C2F2000002A9FFF76DFC00281A
:1016400018BFFEF7E9FE40F27800C2F200006946DA
:10165000FFF770FB002818BFFEF7DEFE06B080BD66
:1016600010B594B040F2C00043F67F040021C2F2EE
:1016700000004FF080421823C0F201040E91CDE922
:101680000C110991CDE90711CDE90511CDE903113F
:10169000CDE90111C0E90023C0E9021401618161B3
:1016A000FFF792FB002818BFFEF7B6FE4FF48050FC
:1016B0000B9040F2C000C2F200000BA9FFF72CFC17
:1016C000002818BFFEF7A8FE40F2C000C2F20000DA
:1016D000FFF79AFE002818BFFEF79EFE40F2C000FA
:1016E0000024C2F2000008A9CDE90844FFF722FB5C
:1016F000002818BFFEF790FE6020CDE9010440F2FB
:10170000C000C2F2000001A9002203940594FFF773
:101710007FFD002818BFFEF77FFE40F2C000C2F236
:10172000000001A90422FFF773FD002818BFFEF78F
:1017300073FE40F2C004C2F2000401A92046082250
:10174000FFF766FD002818BFFEF766FE2068B0F1BF
:10175000804F01D014B010BD002043F630010F902F
:10176000C4F202010A6842F001020A60096801F04D
:1017700001010F910F9907210F910221CDE910105E
:101780001290012013900020C4F202000FA9FEF76E
:101790005BFE14B010BD0000FEE70000FEE7000095
:1017A0007047000070470000FEF732BFB0B592B03E
:1017B000002443F640000B94CDE90944CDE90744E9
:1017C0000594CDE90344CDE901440094C4F202003C
:1017D0000168022541F080510160006800F08050EE
:1017E0000090009847F200000094C4F200000168E5
:1017F00041F440410160006800F4404000900098CE
:101800000120099010200A9008200E906420CDE954
:101810000F050420119006A80695CDE90C54FFF79A
:1018200097F818B172B600BFFEE700BF0F20CDE9F0
:1018300001054FF48050CDE9040401A8032103946D
:10184000FEF79EFF10B172B6FEE700BF12B0B0BD4A
:101850004EF68850CEF20000016841F4700101603C
:101860007047000040F27800C2F20000FFF726BC8B
:1018700010B540F2FF7E0368C4F2000E40F2000C87
:101880007045C4F2010C1DDD40F60002C4F20002F6
:10189000904220D060451ED040F60042C4F20002C3
:1018A000904218D04FF6FF72C4F2000290421CDC46
:1018B000704525DCB0F1804F3AD040F20042C4F2CE
:1018C000000233E0B0F1804F05D040F20042C4F294
:1018D00000029042E6D14A6823F0700313434FF6AA
:1018E000FF72C4F200029042E2DD44F2FF32C4F221
:1018F0000102904210DC60451AD044F2000213E06D
:1019000040F60002C4F20002904211D040F60042BC
:10191000C4F200020AE000BF44F60002C4F2010271
:10192000904205D044F20042C4F20102904203D139
:10193000CA6823F44073134323F080024B69D1F843
:1019400000E08C681A4360450260C462C0F828E079
:1019500002D10969CCF83010012141610169C90740
:1019600008BF10BD016921F00101016110BD000037
:10197000FEE7000040F2000040F2C001C2F20000A9
:10198000C2F20001096890E80C1001204A638B63E1
:10199000C1F83CC0FEF744BDFEF748FEFFF706FF66
:1019A000FFF7FEFDFFF722FEFFF75AFE40F2780038
:1019B000C2F20000FFF76EFA0020C4F202002021FC
:1019C0000022FEF719FE40F2C004C2F200042046D5
:1019D0000021FFF74BFD20460421FFF747FD20467D
:1019E0000821FFF743FD00BFFFF7C4FFFCE7F1EE5E
:1019F000100A4FF6FF71C0F2C03120EA010040F03A
:101A00004070E1EE100A7047000000000000000086
:101A10000102030406070809381A00080000002024
:101A200018000000FC010008501A000818000020EF
:101A3000F80600001C020008D00700006009000042
:101A4000D007000001000000100000000024F40096
:040000050800019955
:00000001FF
